{
  "_format": "hh-sol-artifact-1",
  "contractName": "TrustableFund",
  "sourceName": "contracts/TrustableFund.sol",
  "abi": [
    {
      "anonymous": false,
      "inputs": [
        {
          "indexed": false,
          "internalType": "uint256",
          "name": "fundID",
          "type": "uint256"
        },
        {
          "indexed": false,
          "internalType": "string",
          "name": "storyTitle",
          "type": "string"
        },
        {
          "indexed": false,
          "internalType": "uint256",
          "name": "goal",
          "type": "uint256"
        }
      ],
      "name": "CreateFundSuccess",
      "type": "event"
    },
    {
      "anonymous": false,
      "inputs": [
        {
          "indexed": false,
          "internalType": "uint256",
          "name": "fundID",
          "type": "uint256"
        },
        {
          "indexed": false,
          "internalType": "uint256",
          "name": "donateID",
          "type": "uint256"
        },
        {
          "indexed": false,
          "internalType": "uint256",
          "name": "amout",
          "type": "uint256"
        }
      ],
      "name": "DonateSuccess",
      "type": "event"
    },
    {
      "inputs": [
        {
          "internalType": "uint256",
          "name": "_fundID",
          "type": "uint256"
        },
        {
          "internalType": "string",
          "name": "_time",
          "type": "string"
        }
      ],
      "name": "Donation",
      "outputs": [],
      "stateMutability": "payable",
      "type": "function"
    },
    {
      "inputs": [],
      "name": "getfundingList",
      "outputs": [
        {
          "components": [
            {
              "internalType": "address",
              "name": "ownerAddress",
              "type": "address"
            },
            {
              "internalType": "uint256",
              "name": "fundID",
              "type": "uint256"
            },
            {
              "internalType": "uint256",
              "name": "goal",
              "type": "uint256"
            },
            {
              "internalType": "uint256",
              "name": "donation",
              "type": "uint256"
            },
            {
              "internalType": "uint256[]",
              "name": "donationList",
              "type": "uint256[]"
            },
            {
              "internalType": "uint256",
              "name": "deadLine",
              "type": "uint256"
            },
            {
              "internalType": "string",
              "name": "storyTitle",
              "type": "string"
            },
            {
              "internalType": "string",
              "name": "storyText",
              "type": "string"
            },
            {
              "internalType": "string",
              "name": "imageurl",
              "type": "string"
            },
            {
              "internalType": "bool",
              "name": "active",
              "type": "bool"
            }
          ],
          "internalType": "struct TrustableFund.Fundraise[]",
          "name": "",
          "type": "tuple[]"
        },
        {
          "internalType": "bool",
          "name": "",
          "type": "bool"
        }
      ],
      "stateMutability": "view",
      "type": "function"
    },
    {
      "inputs": [
        {
          "internalType": "uint256",
          "name": "_goal",
          "type": "uint256"
        },
        {
          "internalType": "string",
          "name": "_storyTitle",
          "type": "string"
        },
        {
          "internalType": "string",
          "name": "_storyText",
          "type": "string"
        },
        {
          "internalType": "string",
          "name": "_imageurl",
          "type": "string"
        },
        {
          "internalType": "uint256",
          "name": "_deadline",
          "type": "uint256"
        }
      ],
      "name": "publishFundraise",
      "outputs": [],
      "stateMutability": "nonpayable",
      "type": "function"
    }
  ],
  "bytecode": "0x608060405234801561001057600080fd5b5061169c806100206000396000f3fe6080604052600436106100345760003560e01c8063a9a6ebfb14610039578063ae7a615514610062578063af6c45b41461007e575b600080fd5b34801561004557600080fd5b50610060600480360381019061005b9190610c42565b6100aa565b005b61007c60048036038101906100779190610d11565b61040a565b005b34801561008a57600080fd5b50610093610738565b6040516100a19291906110c6565b60405180910390f35b6000600360003373ffffffffffffffffffffffffffffffffffffffff1673ffffffffffffffffffffffffffffffffffffffff1681526020019081526020016000208054905090506000600260003373ffffffffffffffffffffffffffffffffffffffff1673ffffffffffffffffffffffffffffffffffffffff16815260200190815260200160002060018361013f9190611125565b815481106101505761014f611159565b5b90600052602060002001549050600015156000828154811061017557610174611159565b5b90600052602060002090600a020160090160009054906101000a900460ff161515146101d6576040517f08c379a00000000000000000000000000000000000000000000000000000000081526004016101cd9061120b565b60405180910390fd5b600080805490509050606060006040518061014001604052803373ffffffffffffffffffffffffffffffffffffffff1681526020018481526020018b8152602001600081526020018381526020018781526020018a81526020018981526020018881526020016001151581525090806001815401808255809150506001900390600052602060002090600a020160009091909190915060008201518160000160006101000a81548173ffffffffffffffffffffffffffffffffffffffff021916908373ffffffffffffffffffffffffffffffffffffffff16021790555060208201518160010155604082015181600201556060820151816003015560808201518160040190805190602001906102ed929190610a48565b5060a0820151816005015560c082015181600601908161030d9190611437565b5060e08201518160070190816103239190611437565b5061010082015181600801908161033a9190611437565b506101208201518160090160006101000a81548160ff0219169083151502179055505050600360003373ffffffffffffffffffffffffffffffffffffffff1673ffffffffffffffffffffffffffffffffffffffff1681526020019081526020016000208290806001815401808255809150506001900390600052602060002001600090919091909150557ff73d293370e4f1e7400c4b731446885e081672897f2feaa40776692f88d8092882898b6040516103f793929190611551565b60405180910390a1505050505050505050565b600115156000838154811061042257610421611159565b5b90600052602060002090600a020160090160009054906101000a900460ff16151514610483576040517f08c379a000000000000000000000000000000000000000000000000000000000815260040161047a906115db565b60405180910390fd5b6000600180549050905060016040518060a001604052808581526020018481526020013481526020013373ffffffffffffffffffffffffffffffffffffffff168152602001600086815481106104dc576104db611159565b5b90600052602060002090600a020160000160009054906101000a900473ffffffffffffffffffffffffffffffffffffffff1673ffffffffffffffffffffffffffffffffffffffff16815250908060018154018082558091505060019003906000526020600020906005020160009091909190915060008201518160000155602082015181600101908161056f9190611437565b506040820151816002015560608201518160030160006101000a81548173ffffffffffffffffffffffffffffffffffffffff021916908373ffffffffffffffffffffffffffffffffffffffff16021790555060808201518160040160006101000a81548173ffffffffffffffffffffffffffffffffffffffff021916908373ffffffffffffffffffffffffffffffffffffffff1602179055505050346000848154811061061f5761061e611159565b5b90600052602060002090600a0201600301600082825461063f91906115fb565b925050819055506000838154811061065a57610659611159565b5b90600052602060002090600a0201600401819080600181540180825580915050600190039060005260206000200160009091909190915055600260003373ffffffffffffffffffffffffffffffffffffffff1673ffffffffffffffffffffffffffffffffffffffff1681526020019081526020016000208190806001815401808255809150506001900390600052602060002001600090919091909150557f53c7cf71fdcfd75abacda89607ee3e759afa8d572a48eb590b34d3cc9f063df783823460405161072b9392919061162f565b60405180910390a1505050565b6060600080600181805480602002602001604051908101604052809291908181526020016000905b82821015610a3a57838290600052602060002090600a0201604051806101400160405290816000820160009054906101000a900473ffffffffffffffffffffffffffffffffffffffff1673ffffffffffffffffffffffffffffffffffffffff1673ffffffffffffffffffffffffffffffffffffffff1681526020016001820154815260200160028201548152602001600382015481526020016004820180548060200260200160405190810160405280929190818152602001828054801561084757602002820191906000526020600020905b815481526020019060010190808311610833575b505050505081526020016005820154815260200160068201805461086a9061125a565b80601f01602080910402602001604051908101604052809291908181526020018280546108969061125a565b80156108e35780601f106108b8576101008083540402835291602001916108e3565b820191906000526020600020905b8154815290600101906020018083116108c657829003601f168201915b505050505081526020016007820180546108fc9061125a565b80601f01602080910402602001604051908101604052809291908181526020018280546109289061125a565b80156109755780601f1061094a57610100808354040283529160200191610975565b820191906000526020600020905b81548152906001019060200180831161095857829003601f168201915b5050505050815260200160088201805461098e9061125a565b80601f01602080910402602001604051908101604052809291908181526020018280546109ba9061125a565b8015610a075780601f106109dc57610100808354040283529160200191610a07565b820191906000526020600020905b8154815290600101906020018083116109ea57829003601f168201915b505050505081526020016009820160009054906101000a900460ff16151515158152505081526020019060010190610760565b505050509150915091509091565b828054828255906000526020600020908101928215610a84579160200282015b82811115610a83578251825591602001919060010190610a68565b5b509050610a919190610a95565b5090565b5b80821115610aae576000816000905550600101610a96565b5090565b6000604051905090565b600080fd5b600080fd5b6000819050919050565b610ad981610ac6565b8114610ae457600080fd5b50565b600081359050610af681610ad0565b92915050565b600080fd5b600080fd5b6000601f19601f8301169050919050565b7f4e487b7100000000000000000000000000000000000000000000000000000000600052604160045260246000fd5b610b4f82610b06565b810181811067ffffffffffffffff82111715610b6e57610b6d610b17565b5b80604052505050565b6000610b81610ab2565b9050610b8d8282610b46565b919050565b600067ffffffffffffffff821115610bad57610bac610b17565b5b610bb682610b06565b9050602081019050919050565b82818337600083830152505050565b6000610be5610be084610b92565b610b77565b905082815260208101848484011115610c0157610c00610b01565b5b610c0c848285610bc3565b509392505050565b600082601f830112610c2957610c28610afc565b5b8135610c39848260208601610bd2565b91505092915050565b600080600080600060a08688031215610c5e57610c5d610abc565b5b6000610c6c88828901610ae7565b955050602086013567ffffffffffffffff811115610c8d57610c8c610ac1565b5b610c9988828901610c14565b945050604086013567ffffffffffffffff811115610cba57610cb9610ac1565b5b610cc688828901610c14565b935050606086013567ffffffffffffffff811115610ce757610ce6610ac1565b5b610cf388828901610c14565b9250506080610d0488828901610ae7565b9150509295509295909350565b60008060408385031215610d2857610d27610abc565b5b6000610d3685828601610ae7565b925050602083013567ffffffffffffffff811115610d5757610d56610ac1565b5b610d6385828601610c14565b9150509250929050565b600081519050919050565b600082825260208201905092915050565b6000819050602082019050919050565b600073ffffffffffffffffffffffffffffffffffffffff82169050919050565b6000610dc482610d99565b9050919050565b610dd481610db9565b82525050565b610de381610ac6565b82525050565b600081519050919050565b600082825260208201905092915050565b6000819050602082019050919050565b6000610e218383610dda565b60208301905092915050565b6000602082019050919050565b6000610e4582610de9565b610e4f8185610df4565b9350610e5a83610e05565b8060005b83811015610e8b578151610e728882610e15565b9750610e7d83610e2d565b925050600181019050610e5e565b5085935050505092915050565b600081519050919050565b600082825260208201905092915050565b60005b83811015610ed2578082015181840152602081019050610eb7565b60008484015250505050565b6000610ee982610e98565b610ef38185610ea3565b9350610f03818560208601610eb4565b610f0c81610b06565b840191505092915050565b60008115159050919050565b610f2c81610f17565b82525050565b600061014083016000830151610f4b6000860182610dcb565b506020830151610f5e6020860182610dda565b506040830151610f716040860182610dda565b506060830151610f846060860182610dda565b5060808301518482036080860152610f9c8282610e3a565b91505060a0830151610fb160a0860182610dda565b5060c083015184820360c0860152610fc98282610ede565b91505060e083015184820360e0860152610fe38282610ede565b915050610100830151848203610100860152610fff8282610ede565b915050610120830151611016610120860182610f23565b508091505092915050565b600061102d8383610f32565b905092915050565b6000602082019050919050565b600061104d82610d6d565b6110578185610d78565b93508360208202850161106985610d89565b8060005b858110156110a557848403895281516110868582611021565b945061109183611035565b925060208a0199505060018101905061106d565b50829750879550505050505092915050565b6110c081610f17565b82525050565b600060408201905081810360008301526110e08185611042565b90506110ef60208301846110b7565b9392505050565b7f4e487b7100000000000000000000000000000000000000000000000000000000600052601160045260246000fd5b600061113082610ac6565b915061113b83610ac6565b9250828203905081811115611153576111526110f6565b5b92915050565b7f4e487b7100000000000000000000000000000000000000000000000000000000600052603260045260246000fd5b600082825260208201905092915050565b7f596f7520616c6c2072656164792068617665206f70656e6e696e672046756e6460008201527f7261697365000000000000000000000000000000000000000000000000000000602082015250565b60006111f5602583611188565b915061120082611199565b604082019050919050565b60006020820190508181036000830152611224816111e8565b9050919050565b7f4e487b7100000000000000000000000000000000000000000000000000000000600052602260045260246000fd5b6000600282049050600182168061127257607f821691505b6020821081036112855761128461122b565b5b50919050565b60008190508160005260206000209050919050565b60006020601f8301049050919050565b600082821b905092915050565b6000600883026112ed7fffffffffffffffffffffffffffffffffffffffffffffffffffffffffffffffff826112b0565b6112f786836112b0565b95508019841693508086168417925050509392505050565b6000819050919050565b600061133461132f61132a84610ac6565b61130f565b610ac6565b9050919050565b6000819050919050565b61134e83611319565b61136261135a8261133b565b8484546112bd565b825550505050565b600090565b61137761136a565b611382818484611345565b505050565b5b818110156113a65761139b60008261136f565b600181019050611388565b5050565b601f8211156113eb576113bc8161128b565b6113c5846112a0565b810160208510156113d4578190505b6113e86113e0856112a0565b830182611387565b50505b505050565b600082821c905092915050565b600061140e600019846008026113f0565b1980831691505092915050565b600061142783836113fd565b9150826002028217905092915050565b61144082610e98565b67ffffffffffffffff81111561145957611458610b17565b5b611463825461125a565b61146e8282856113aa565b600060209050601f8311600181146114a1576000841561148f578287015190505b611499858261141b565b865550611501565b601f1984166114af8661128b565b60005b828110156114d7578489015182556001820191506020850194506020810190506114b2565b868310156114f457848901516114f0601f8916826113fd565b8355505b6001600288020188555050505b505050505050565b61151281610ac6565b82525050565b600061152382610e98565b61152d8185611188565b935061153d818560208601610eb4565b61154681610b06565b840191505092915050565b60006060820190506115666000830186611509565b81810360208301526115788185611518565b90506115876040830184611509565b949350505050565b7f66756e647261697365206973206e6f7420616374697665000000000000000000600082015250565b60006115c5601783611188565b91506115d08261158f565b602082019050919050565b600060208201905081810360008301526115f4816115b8565b9050919050565b600061160682610ac6565b915061161183610ac6565b9250828201905080821115611629576116286110f6565b5b92915050565b60006060820190506116446000830186611509565b6116516020830185611509565b61165e6040830184611509565b94935050505056fea2646970667358221220252dce46a772047e059ede35897e44081a52f8bafebde25b2f738e6bb7e7ce2864736f6c63430008180033",
  "linkReferences": {},
  "deployedLinkReferences": {}
}