{
  "_format": "hh-sol-artifact-1",
  "contractName": "TrustableFund",
  "sourceName": "contracts/TrustableFund.sol",
  "abi": [
    {
      "anonymous": false,
      "inputs": [
        {
          "indexed": false,
          "internalType": "uint256",
          "name": "fundID",
          "type": "uint256"
        },
        {
          "indexed": false,
          "internalType": "string",
          "name": "storyTitle",
          "type": "string"
        },
        {
          "indexed": false,
          "internalType": "uint256",
          "name": "goal",
          "type": "uint256"
        }
      ],
      "name": "CreateFundSuccess",
      "type": "event"
    },
    {
      "anonymous": false,
      "inputs": [
        {
          "indexed": false,
          "internalType": "uint256",
          "name": "fundID",
          "type": "uint256"
        },
        {
          "indexed": false,
          "internalType": "uint256",
          "name": "donateID",
          "type": "uint256"
        },
        {
          "indexed": false,
          "internalType": "uint256",
          "name": "amout",
          "type": "uint256"
        }
      ],
      "name": "DonateSuccess",
      "type": "event"
    },
    {
      "inputs": [
        {
          "internalType": "uint256",
          "name": "_fundID",
          "type": "uint256"
        },
        {
          "internalType": "string",
          "name": "_time",
          "type": "string"
        }
      ],
      "name": "Donation",
      "outputs": [],
      "stateMutability": "payable",
      "type": "function"
    },
    {
      "inputs": [],
      "name": "getfundList",
      "outputs": [
        {
          "components": [
            {
              "internalType": "address",
              "name": "ownerAddress",
              "type": "address"
            },
            {
              "internalType": "uint256",
              "name": "fundID",
              "type": "uint256"
            },
            {
              "internalType": "uint256",
              "name": "goal",
              "type": "uint256"
            },
            {
              "internalType": "uint256",
              "name": "donation",
              "type": "uint256"
            },
            {
              "internalType": "uint256[]",
              "name": "donationList",
              "type": "uint256[]"
            },
            {
              "internalType": "uint256",
              "name": "deadLine",
              "type": "uint256"
            },
            {
              "internalType": "string",
              "name": "storyTitle",
              "type": "string"
            },
            {
              "internalType": "string",
              "name": "storyText",
              "type": "string"
            },
            {
              "internalType": "string",
              "name": "imageurl",
              "type": "string"
            },
            {
              "internalType": "bool",
              "name": "active",
              "type": "bool"
            }
          ],
          "internalType": "struct TrustableFund.Fundraise[]",
          "name": "",
          "type": "tuple[]"
        },
        {
          "internalType": "bool",
          "name": "",
          "type": "bool"
        }
      ],
      "stateMutability": "view",
      "type": "function"
    },
    {
      "inputs": [
        {
          "internalType": "uint256",
          "name": "_goal",
          "type": "uint256"
        },
        {
          "internalType": "string",
          "name": "_storyTitle",
          "type": "string"
        },
        {
          "internalType": "string",
          "name": "_storyText",
          "type": "string"
        },
        {
          "internalType": "string",
          "name": "_imageurl",
          "type": "string"
        },
        {
          "internalType": "uint256",
          "name": "_deadline",
          "type": "uint256"
        }
      ],
      "name": "publishFundraise",
      "outputs": [],
      "stateMutability": "nonpayable",
      "type": "function"
    }
  ],
  "bytecode": "0x608060405234801561001057600080fd5b5061169c806100206000396000f3fe6080604052600436106100345760003560e01c8063a652023c14610039578063a9a6ebfb14610065578063ae7a61551461008e575b600080fd5b34801561004557600080fd5b5061004e6100aa565b60405161005c929190610e26565b60405180910390f35b34801561007157600080fd5b5061008c60048036038101906100879190610fcb565b6103ba565b005b6100a860048036038101906100a3919061109a565b61071a565b005b6060600080600181805480602002602001604051908101604052809291908181526020016000905b828210156103ac57838290600052602060002090600a0201604051806101400160405290816000820160009054906101000a900473ffffffffffffffffffffffffffffffffffffffff1673ffffffffffffffffffffffffffffffffffffffff1673ffffffffffffffffffffffffffffffffffffffff168152602001600182015481526020016002820154815260200160038201548152602001600482018054806020026020016040519081016040528092919081815260200182805480156101b957602002820191906000526020600020905b8154815260200190600101908083116101a5575b50505050508152602001600582015481526020016006820180546101dc90611125565b80601f016020809104026020016040519081016040528092919081815260200182805461020890611125565b80156102555780601f1061022a57610100808354040283529160200191610255565b820191906000526020600020905b81548152906001019060200180831161023857829003601f168201915b5050505050815260200160078201805461026e90611125565b80601f016020809104026020016040519081016040528092919081815260200182805461029a90611125565b80156102e75780601f106102bc576101008083540402835291602001916102e7565b820191906000526020600020905b8154815290600101906020018083116102ca57829003601f168201915b5050505050815260200160088201805461030090611125565b80601f016020809104026020016040519081016040528092919081815260200182805461032c90611125565b80156103795780601f1061034e57610100808354040283529160200191610379565b820191906000526020600020905b81548152906001019060200180831161035c57829003601f168201915b505050505081526020016009820160009054906101000a900460ff161515151581525050815260200190600101906100d2565b505050509150915091509091565b6000600360003373ffffffffffffffffffffffffffffffffffffffff1673ffffffffffffffffffffffffffffffffffffffff1681526020019081526020016000208054905090506000600360003373ffffffffffffffffffffffffffffffffffffffff1673ffffffffffffffffffffffffffffffffffffffff16815260200190815260200160002060018361044f9190611185565b815481106104605761045f6111b9565b5b906000526020600020015490506000151560008281548110610485576104846111b9565b5b90600052602060002090600a020160090160009054906101000a900460ff161515146104e6576040517f08c379a00000000000000000000000000000000000000000000000000000000081526004016104dd9061126b565b60405180910390fd5b600080805490509050606060006040518061014001604052803373ffffffffffffffffffffffffffffffffffffffff1681526020018481526020018b8152602001600081526020018381526020018781526020018a81526020018981526020018881526020016001151581525090806001815401808255809150506001900390600052602060002090600a020160009091909190915060008201518160000160006101000a81548173ffffffffffffffffffffffffffffffffffffffff021916908373ffffffffffffffffffffffffffffffffffffffff16021790555060208201518160010155604082015181600201556060820151816003015560808201518160040190805190602001906105fd929190610a48565b5060a0820151816005015560c082015181600601908161061d9190611437565b5060e08201518160070190816106339190611437565b5061010082015181600801908161064a9190611437565b506101208201518160090160006101000a81548160ff0219169083151502179055505050600360003373ffffffffffffffffffffffffffffffffffffffff1673ffffffffffffffffffffffffffffffffffffffff1681526020019081526020016000208290806001815401808255809150506001900390600052602060002001600090919091909150557ff73d293370e4f1e7400c4b731446885e081672897f2feaa40776692f88d8092882898b60405161070793929190611551565b60405180910390a1505050505050505050565b6001151560008381548110610732576107316111b9565b5b90600052602060002090600a020160090160009054906101000a900460ff16151514610793576040517f08c379a000000000000000000000000000000000000000000000000000000000815260040161078a906115db565b60405180910390fd5b6000600180549050905060016040518060a001604052808581526020018481526020013481526020013373ffffffffffffffffffffffffffffffffffffffff168152602001600086815481106107ec576107eb6111b9565b5b90600052602060002090600a020160000160009054906101000a900473ffffffffffffffffffffffffffffffffffffffff1673ffffffffffffffffffffffffffffffffffffffff16815250908060018154018082558091505060019003906000526020600020906005020160009091909190915060008201518160000155602082015181600101908161087f9190611437565b506040820151816002015560608201518160030160006101000a81548173ffffffffffffffffffffffffffffffffffffffff021916908373ffffffffffffffffffffffffffffffffffffffff16021790555060808201518160040160006101000a81548173ffffffffffffffffffffffffffffffffffffffff021916908373ffffffffffffffffffffffffffffffffffffffff1602179055505050346000848154811061092f5761092e6111b9565b5b90600052602060002090600a0201600301600082825461094f91906115fb565b925050819055506000838154811061096a576109696111b9565b5b90600052602060002090600a0201600401819080600181540180825580915050600190039060005260206000200160009091909190915055600260003373ffffffffffffffffffffffffffffffffffffffff1673ffffffffffffffffffffffffffffffffffffffff1681526020019081526020016000208190806001815401808255809150506001900390600052602060002001600090919091909150557f53c7cf71fdcfd75abacda89607ee3e759afa8d572a48eb590b34d3cc9f063df7838234604051610a3b9392919061162f565b60405180910390a1505050565b828054828255906000526020600020908101928215610a84579160200282015b82811115610a83578251825591602001919060010190610a68565b5b509050610a919190610a95565b5090565b5b80821115610aae576000816000905550600101610a96565b5090565b600081519050919050565b600082825260208201905092915050565b6000819050602082019050919050565b600073ffffffffffffffffffffffffffffffffffffffff82169050919050565b6000610b0982610ade565b9050919050565b610b1981610afe565b82525050565b6000819050919050565b610b3281610b1f565b82525050565b600081519050919050565b600082825260208201905092915050565b6000819050602082019050919050565b6000610b708383610b29565b60208301905092915050565b6000602082019050919050565b6000610b9482610b38565b610b9e8185610b43565b9350610ba983610b54565b8060005b83811015610bda578151610bc18882610b64565b9750610bcc83610b7c565b925050600181019050610bad565b5085935050505092915050565b600081519050919050565b600082825260208201905092915050565b60005b83811015610c21578082015181840152602081019050610c06565b60008484015250505050565b6000601f19601f8301169050919050565b6000610c4982610be7565b610c538185610bf2565b9350610c63818560208601610c03565b610c6c81610c2d565b840191505092915050565b60008115159050919050565b610c8c81610c77565b82525050565b600061014083016000830151610cab6000860182610b10565b506020830151610cbe6020860182610b29565b506040830151610cd16040860182610b29565b506060830151610ce46060860182610b29565b5060808301518482036080860152610cfc8282610b89565b91505060a0830151610d1160a0860182610b29565b5060c083015184820360c0860152610d298282610c3e565b91505060e083015184820360e0860152610d438282610c3e565b915050610100830151848203610100860152610d5f8282610c3e565b915050610120830151610d76610120860182610c83565b508091505092915050565b6000610d8d8383610c92565b905092915050565b6000602082019050919050565b6000610dad82610ab2565b610db78185610abd565b935083602082028501610dc985610ace565b8060005b85811015610e055784840389528151610de68582610d81565b9450610df183610d95565b925060208a01995050600181019050610dcd565b50829750879550505050505092915050565b610e2081610c77565b82525050565b60006040820190508181036000830152610e408185610da2565b9050610e4f6020830184610e17565b9392505050565b6000604051905090565b600080fd5b600080fd5b610e7381610b1f565b8114610e7e57600080fd5b50565b600081359050610e9081610e6a565b92915050565b600080fd5b600080fd5b7f4e487b7100000000000000000000000000000000000000000000000000000000600052604160045260246000fd5b610ed882610c2d565b810181811067ffffffffffffffff82111715610ef757610ef6610ea0565b5b80604052505050565b6000610f0a610e56565b9050610f168282610ecf565b919050565b600067ffffffffffffffff821115610f3657610f35610ea0565b5b610f3f82610c2d565b9050602081019050919050565b82818337600083830152505050565b6000610f6e610f6984610f1b565b610f00565b905082815260208101848484011115610f8a57610f89610e9b565b5b610f95848285610f4c565b509392505050565b600082601f830112610fb257610fb1610e96565b5b8135610fc2848260208601610f5b565b91505092915050565b600080600080600060a08688031215610fe757610fe6610e60565b5b6000610ff588828901610e81565b955050602086013567ffffffffffffffff81111561101657611015610e65565b5b61102288828901610f9d565b945050604086013567ffffffffffffffff81111561104357611042610e65565b5b61104f88828901610f9d565b935050606086013567ffffffffffffffff8111156110705761106f610e65565b5b61107c88828901610f9d565b925050608061108d88828901610e81565b9150509295509295909350565b600080604083850312156110b1576110b0610e60565b5b60006110bf85828601610e81565b925050602083013567ffffffffffffffff8111156110e0576110df610e65565b5b6110ec85828601610f9d565b9150509250929050565b7f4e487b7100000000000000000000000000000000000000000000000000000000600052602260045260246000fd5b6000600282049050600182168061113d57607f821691505b6020821081036111505761114f6110f6565b5b50919050565b7f4e487b7100000000000000000000000000000000000000000000000000000000600052601160045260246000fd5b600061119082610b1f565b915061119b83610b1f565b92508282039050818111156111b3576111b2611156565b5b92915050565b7f4e487b7100000000000000000000000000000000000000000000000000000000600052603260045260246000fd5b600082825260208201905092915050565b7f596f7520616c6c2072656164792068617665206f70656e6e696e672046756e6460008201527f7261697365000000000000000000000000000000000000000000000000000000602082015250565b60006112556025836111e8565b9150611260826111f9565b604082019050919050565b6000602082019050818103600083015261128481611248565b9050919050565b60008190508160005260206000209050919050565b60006020601f8301049050919050565b600082821b905092915050565b6000600883026112ed7fffffffffffffffffffffffffffffffffffffffffffffffffffffffffffffffff826112b0565b6112f786836112b0565b95508019841693508086168417925050509392505050565b6000819050919050565b600061133461132f61132a84610b1f565b61130f565b610b1f565b9050919050565b6000819050919050565b61134e83611319565b61136261135a8261133b565b8484546112bd565b825550505050565b600090565b61137761136a565b611382818484611345565b505050565b5b818110156113a65761139b60008261136f565b600181019050611388565b5050565b601f8211156113eb576113bc8161128b565b6113c5846112a0565b810160208510156113d4578190505b6113e86113e0856112a0565b830182611387565b50505b505050565b600082821c905092915050565b600061140e600019846008026113f0565b1980831691505092915050565b600061142783836113fd565b9150826002028217905092915050565b61144082610be7565b67ffffffffffffffff81111561145957611458610ea0565b5b6114638254611125565b61146e8282856113aa565b600060209050601f8311600181146114a1576000841561148f578287015190505b611499858261141b565b865550611501565b601f1984166114af8661128b565b60005b828110156114d7578489015182556001820191506020850194506020810190506114b2565b868310156114f457848901516114f0601f8916826113fd565b8355505b6001600288020188555050505b505050505050565b61151281610b1f565b82525050565b600061152382610be7565b61152d81856111e8565b935061153d818560208601610c03565b61154681610c2d565b840191505092915050565b60006060820190506115666000830186611509565b81810360208301526115788185611518565b90506115876040830184611509565b949350505050565b7f66756e647261697365206973206e6f7420616374697665000000000000000000600082015250565b60006115c56017836111e8565b91506115d08261158f565b602082019050919050565b600060208201905081810360008301526115f4816115b8565b9050919050565b600061160682610b1f565b915061161183610b1f565b925082820190508082111561162957611628611156565b5b92915050565b60006060820190506116446000830186611509565b6116516020830185611509565b61165e6040830184611509565b94935050505056fea2646970667358221220677720ab061d828fed4d5f8bad4c53687f8feb79a9cee0c8dadfe506322f313e64736f6c63430008180033",
  "linkReferences": {},
  "deployedLinkReferences": {}
}