{
  "_format": "hh-sol-artifact-1",
  "contractName": "TrustableFund",
  "sourceName": "contracts/TrustableFund.sol",
  "abi": [
    {
      "anonymous": false,
      "inputs": [
        {
          "indexed": false,
          "internalType": "uint256",
          "name": "fundID",
          "type": "uint256"
        },
        {
          "indexed": false,
          "internalType": "uint256",
          "name": "amount",
          "type": "uint256"
        }
      ],
      "name": "CancelSuccess",
      "type": "event"
    },
    {
      "anonymous": false,
      "inputs": [
        {
          "indexed": false,
          "internalType": "uint256",
          "name": "fundID",
          "type": "uint256"
        },
        {
          "indexed": false,
          "internalType": "string",
          "name": "storyTitle",
          "type": "string"
        },
        {
          "indexed": false,
          "internalType": "uint256",
          "name": "goal",
          "type": "uint256"
        }
      ],
      "name": "CreateFundSuccess",
      "type": "event"
    },
    {
      "anonymous": false,
      "inputs": [
        {
          "indexed": false,
          "internalType": "uint256",
          "name": "fundID",
          "type": "uint256"
        },
        {
          "indexed": false,
          "internalType": "uint256",
          "name": "donateID",
          "type": "uint256"
        },
        {
          "indexed": false,
          "internalType": "uint256",
          "name": "amout",
          "type": "uint256"
        }
      ],
      "name": "DonateSuccess",
      "type": "event"
    },
    {
      "anonymous": false,
      "inputs": [
        {
          "indexed": false,
          "internalType": "uint256",
          "name": "fundID",
          "type": "uint256"
        },
        {
          "indexed": false,
          "internalType": "uint256",
          "name": "donateID",
          "type": "uint256"
        },
        {
          "indexed": false,
          "internalType": "uint256",
          "name": "amount",
          "type": "uint256"
        }
      ],
      "name": "RefundSuccess",
      "type": "event"
    },
    {
      "anonymous": false,
      "inputs": [
        {
          "indexed": false,
          "internalType": "uint256",
          "name": "fundID",
          "type": "uint256"
        },
        {
          "indexed": false,
          "internalType": "uint256",
          "name": "amount",
          "type": "uint256"
        }
      ],
      "name": "WithdrawSuccess",
      "type": "event"
    },
    {
      "inputs": [
        {
          "internalType": "string",
          "name": "_time",
          "type": "string"
        }
      ],
      "name": "cancelFundraise",
      "outputs": [],
      "stateMutability": "payable",
      "type": "function"
    },
    {
      "inputs": [
        {
          "internalType": "uint256",
          "name": "_fundID",
          "type": "uint256"
        },
        {
          "internalType": "string",
          "name": "_time",
          "type": "string"
        }
      ],
      "name": "donation",
      "outputs": [],
      "stateMutability": "payable",
      "type": "function"
    },
    {
      "inputs": [
        {
          "internalType": "uint256",
          "name": "_fundID",
          "type": "uint256"
        }
      ],
      "name": "getDonationByFundraise",
      "outputs": [
        {
          "components": [
            {
              "internalType": "uint256",
              "name": "fundID",
              "type": "uint256"
            },
            {
              "internalType": "string",
              "name": "time",
              "type": "string"
            },
            {
              "internalType": "uint256",
              "name": "transAmount",
              "type": "uint256"
            },
            {
              "internalType": "address",
              "name": "donator",
              "type": "address"
            },
            {
              "internalType": "address",
              "name": "fundraiser",
              "type": "address"
            },
            {
              "internalType": "bool",
              "name": "refund",
              "type": "bool"
            }
          ],
          "internalType": "struct TrustableFund.DonationHistory[]",
          "name": "",
          "type": "tuple[]"
        },
        {
          "internalType": "bool",
          "name": "",
          "type": "bool"
        }
      ],
      "stateMutability": "view",
      "type": "function"
    },
    {
      "inputs": [],
      "name": "getDonationHistoryByUser",
      "outputs": [
        {
          "components": [
            {
              "internalType": "uint256",
              "name": "fundID",
              "type": "uint256"
            },
            {
              "internalType": "string",
              "name": "time",
              "type": "string"
            },
            {
              "internalType": "uint256",
              "name": "transAmount",
              "type": "uint256"
            },
            {
              "internalType": "address",
              "name": "donator",
              "type": "address"
            },
            {
              "internalType": "address",
              "name": "fundraiser",
              "type": "address"
            },
            {
              "internalType": "bool",
              "name": "refund",
              "type": "bool"
            }
          ],
          "internalType": "struct TrustableFund.DonationHistory[]",
          "name": "",
          "type": "tuple[]"
        },
        {
          "internalType": "bool",
          "name": "",
          "type": "bool"
        }
      ],
      "stateMutability": "view",
      "type": "function"
    },
    {
      "inputs": [],
      "name": "getFundList",
      "outputs": [
        {
          "components": [
            {
              "internalType": "address",
              "name": "ownerAddress",
              "type": "address"
            },
            {
              "internalType": "uint256",
              "name": "fundID",
              "type": "uint256"
            },
            {
              "internalType": "uint256",
              "name": "goal",
              "type": "uint256"
            },
            {
              "internalType": "uint256",
              "name": "donation",
              "type": "uint256"
            },
            {
              "internalType": "uint256[]",
              "name": "donationList",
              "type": "uint256[]"
            },
            {
              "internalType": "uint256",
              "name": "deadLine",
              "type": "uint256"
            },
            {
              "internalType": "string",
              "name": "storyTitle",
              "type": "string"
            },
            {
              "internalType": "string",
              "name": "storyText",
              "type": "string"
            },
            {
              "internalType": "string",
              "name": "imageurl",
              "type": "string"
            },
            {
              "internalType": "bool",
              "name": "active",
              "type": "bool"
            }
          ],
          "internalType": "struct TrustableFund.Fundraise[]",
          "name": "",
          "type": "tuple[]"
        },
        {
          "internalType": "bool",
          "name": "",
          "type": "bool"
        }
      ],
      "stateMutability": "view",
      "type": "function"
    },
    {
      "inputs": [
        {
          "internalType": "uint256",
          "name": "_fundID",
          "type": "uint256"
        }
      ],
      "name": "getFundTitle",
      "outputs": [
        {
          "internalType": "string",
          "name": "",
          "type": "string"
        }
      ],
      "stateMutability": "view",
      "type": "function"
    },
    {
      "inputs": [],
      "name": "getFundraiseByUser",
      "outputs": [
        {
          "components": [
            {
              "internalType": "address",
              "name": "ownerAddress",
              "type": "address"
            },
            {
              "internalType": "uint256",
              "name": "fundID",
              "type": "uint256"
            },
            {
              "internalType": "uint256",
              "name": "goal",
              "type": "uint256"
            },
            {
              "internalType": "uint256",
              "name": "donation",
              "type": "uint256"
            },
            {
              "internalType": "uint256[]",
              "name": "donationList",
              "type": "uint256[]"
            },
            {
              "internalType": "uint256",
              "name": "deadLine",
              "type": "uint256"
            },
            {
              "internalType": "string",
              "name": "storyTitle",
              "type": "string"
            },
            {
              "internalType": "string",
              "name": "storyText",
              "type": "string"
            },
            {
              "internalType": "string",
              "name": "imageurl",
              "type": "string"
            },
            {
              "internalType": "bool",
              "name": "active",
              "type": "bool"
            }
          ],
          "internalType": "struct TrustableFund.Fundraise[]",
          "name": "",
          "type": "tuple[]"
        },
        {
          "internalType": "bool",
          "name": "",
          "type": "bool"
        }
      ],
      "stateMutability": "view",
      "type": "function"
    },
    {
      "inputs": [
        {
          "internalType": "uint256",
          "name": "_goal",
          "type": "uint256"
        },
        {
          "internalType": "string",
          "name": "_storyTitle",
          "type": "string"
        },
        {
          "internalType": "string",
          "name": "_storyText",
          "type": "string"
        },
        {
          "internalType": "string",
          "name": "_imageurl",
          "type": "string"
        },
        {
          "internalType": "uint256",
          "name": "_deadline",
          "type": "uint256"
        }
      ],
      "name": "publishFundraise",
      "outputs": [],
      "stateMutability": "nonpayable",
      "type": "function"
    },
    {
      "inputs": [],
      "name": "withdrawFundraise",
      "outputs": [],
      "stateMutability": "payable",
      "type": "function"
    }
  ],
  "bytecode": "0x608060405234801561001057600080fd5b506134f6806100206000396000f3fe6080604052600436106100865760003560e01c806382e4df3e1161005957806382e4df3e1461013c578063a9a6ebfb1461017a578063acb0e7c1146101a3578063bd5b5917146101ad578063c2b3e439146101c957610086565b80633443554c1461008b5780636fc56c42146100a757806371a01643146100e4578063742d563914610110575b600080fd5b6100a560048036038101906100a091906126d0565b6101f5565b005b3480156100b357600080fd5b506100ce60048036038101906100c9919061272c565b61054c565b6040516100db91906127d8565b60405180910390f35b3480156100f057600080fd5b506100f961064a565b604051610107929190612b1e565b60405180910390f35b34801561011c57600080fd5b5061012561095a565b604051610133929190612c99565b60405180910390f35b34801561014857600080fd5b50610163600480360381019061015e919061272c565b610ce0565b604051610171929190612c99565b60405180910390f35b34801561018657600080fd5b506101a1600480360381019061019c9190612cc9565b61103e565b005b6101ab6113d2565b005b6101c760048036038101906101c29190612d98565b611773565b005b3480156101d557600080fd5b506101de611f46565b6040516101ec929190612b1e565b60405180910390f35b600115156000838154811061020d5761020c612de1565b5b90600052602060002090600a020160090160009054906101000a900460ff1615151461026e576040517f08c379a000000000000000000000000000000000000000000000000000000000815260040161026590612e5c565b60405180910390fd5b6000600180549050905060016040518060c001604052808581526020018481526020013481526020013373ffffffffffffffffffffffffffffffffffffffff168152602001600086815481106102c7576102c6612de1565b5b90600052602060002090600a020160000160009054906101000a900473ffffffffffffffffffffffffffffffffffffffff1673ffffffffffffffffffffffffffffffffffffffff1681526020016000151581525090806001815401808255809150506001900390600052602060002090600502016000909190919091506000820151816000015560208201518160010190816103639190613088565b506040820151816002015560608201518160030160006101000a81548173ffffffffffffffffffffffffffffffffffffffff021916908373ffffffffffffffffffffffffffffffffffffffff16021790555060808201518160040160006101000a81548173ffffffffffffffffffffffffffffffffffffffff021916908373ffffffffffffffffffffffffffffffffffffffff16021790555060a08201518160040160146101000a81548160ff0219169083151502179055505050346000848154811061043357610432612de1565b5b90600052602060002090600a020160030160008282546104539190613189565b925050819055506000838154811061046e5761046d612de1565b5b90600052602060002090600a0201600401819080600181540180825580915050600190039060005260206000200160009091909190915055600260003373ffffffffffffffffffffffffffffffffffffffff1673ffffffffffffffffffffffffffffffffffffffff1681526020019081526020016000208190806001815401808255809150506001900390600052602060002001600090919091909150557f53c7cf71fdcfd75abacda89607ee3e759afa8d572a48eb590b34d3cc9f063df783823460405161053f939291906131cc565b60405180910390a1505050565b60606000805490508210610595576040517f08c379a000000000000000000000000000000000000000000000000000000000815260040161058c9061324f565b60405180910390fd5b600082815481106105a9576105a8612de1565b5b90600052602060002090600a020160060180546105c590612eab565b80601f01602080910402602001604051908101604052809291908181526020018280546105f190612eab565b801561063e5780601f106106135761010080835404028352916020019161063e565b820191906000526020600020905b81548152906001019060200180831161062157829003601f168201915b50505050509050919050565b6060600080600181805480602002602001604051908101604052809291908181526020016000905b8282101561094c57838290600052602060002090600a0201604051806101400160405290816000820160009054906101000a900473ffffffffffffffffffffffffffffffffffffffff1673ffffffffffffffffffffffffffffffffffffffff1673ffffffffffffffffffffffffffffffffffffffff1681526020016001820154815260200160028201548152602001600382015481526020016004820180548060200260200160405190810160405280929190818152602001828054801561075957602002820191906000526020600020905b815481526020019060010190808311610745575b505050505081526020016005820154815260200160068201805461077c90612eab565b80601f01602080910402602001604051908101604052809291908181526020018280546107a890612eab565b80156107f55780601f106107ca576101008083540402835291602001916107f5565b820191906000526020600020905b8154815290600101906020018083116107d857829003601f168201915b5050505050815260200160078201805461080e90612eab565b80601f016020809104026020016040519081016040528092919081815260200182805461083a90612eab565b80156108875780601f1061085c57610100808354040283529160200191610887565b820191906000526020600020905b81548152906001019060200180831161086a57829003601f168201915b505050505081526020016008820180546108a090612eab565b80601f01602080910402602001604051908101604052809291908181526020018280546108cc90612eab565b80156109195780601f106108ee57610100808354040283529160200191610919565b820191906000526020600020905b8154815290600101906020018083116108fc57829003601f168201915b505050505081526020016009820160009054906101000a900460ff16151515158152505081526020019060010190610672565b505050509150915091509091565b6060600080600260003373ffffffffffffffffffffffffffffffffffffffff1673ffffffffffffffffffffffffffffffffffffffff1681526020019081526020016000208054905003610a0757600067ffffffffffffffff8111156109c2576109c16125a5565b5b6040519080825280602002602001820160405280156109fb57816020015b6109e8612407565b8152602001906001900390816109e05790505b50600091509150610cdc565b6000600260003373ffffffffffffffffffffffffffffffffffffffff1673ffffffffffffffffffffffffffffffffffffffff16815260200190815260200160002080549050905060008167ffffffffffffffff811115610a6a57610a696125a5565b5b604051908082528060200260200182016040528015610aa357816020015b610a90612407565b815260200190600190039081610a885790505b50905060005b82811015610cd1576001600260003373ffffffffffffffffffffffffffffffffffffffff1673ffffffffffffffffffffffffffffffffffffffff1681526020019081526020016000208281548110610b0457610b03612de1565b5b906000526020600020015481548110610b2057610b1f612de1565b5b90600052602060002090600502016040518060c001604052908160008201548152602001600182018054610b5390612eab565b80601f0160208091040260200160405190810160405280929190818152602001828054610b7f90612eab565b8015610bcc5780601f10610ba157610100808354040283529160200191610bcc565b820191906000526020600020905b815481529060010190602001808311610baf57829003601f168201915b50505050508152602001600282015481526020016003820160009054906101000a900473ffffffffffffffffffffffffffffffffffffffff1673ffffffffffffffffffffffffffffffffffffffff1673ffffffffffffffffffffffffffffffffffffffff1681526020016004820160009054906101000a900473ffffffffffffffffffffffffffffffffffffffff1673ffffffffffffffffffffffffffffffffffffffff1673ffffffffffffffffffffffffffffffffffffffff1681526020016004820160149054906101000a900460ff161515151581525050828281518110610cb957610cb8612de1565b5b60200260200101819052508080600101915050610aa9565b508060019350935050505b9091565b606060008060008481548110610cf957610cf8612de1565b5b90600052602060002090600a02016004018054905003610d7357600067ffffffffffffffff811115610d2e57610d2d6125a5565b5b604051908082528060200260200182016040528015610d6757816020015b610d54612407565b815260200190600190039081610d4c5790505b50600091509150611039565b6000808481548110610d8857610d87612de1565b5b90600052602060002090600a0201600401805480602002602001604051908101604052809291908181526020018280548015610de357602002820191906000526020600020905b815481526020019060010190808311610dcf575b505050505090506000815167ffffffffffffffff811115610e0757610e066125a5565b5b604051908082528060200260200182016040528015610e4057816020015b610e2d612407565b815260200190600190039081610e255790505b50905060005b825181101561102e576001838281518110610e6457610e63612de1565b5b602002602001015181548110610e7d57610e7c612de1565b5b90600052602060002090600502016040518060c001604052908160008201548152602001600182018054610eb090612eab565b80601f0160208091040260200160405190810160405280929190818152602001828054610edc90612eab565b8015610f295780601f10610efe57610100808354040283529160200191610f29565b820191906000526020600020905b815481529060010190602001808311610f0c57829003601f168201915b50505050508152602001600282015481526020016003820160009054906101000a900473ffffffffffffffffffffffffffffffffffffffff1673ffffffffffffffffffffffffffffffffffffffff1673ffffffffffffffffffffffffffffffffffffffff1681526020016004820160009054906101000a900473ffffffffffffffffffffffffffffffffffffffff1673ffffffffffffffffffffffffffffffffffffffff1673ffffffffffffffffffffffffffffffffffffffff1681526020016004820160149054906101000a900460ff16151515158152505082828151811061101657611015612de1565b5b60200260200101819052508080600101915050610e46565b508060019350935050505b915091565b6000600360003373ffffffffffffffffffffffffffffffffffffffff1673ffffffffffffffffffffffffffffffffffffffff16815260200190815260200160002080549050905060008082146110f957600360003373ffffffffffffffffffffffffffffffffffffffff1673ffffffffffffffffffffffffffffffffffffffff1681526020019081526020016000206001836110da919061326f565b815481106110eb576110ea612de1565b5b906000526020600020015490505b600082148061113e5750600015156000828154811061111b5761111a612de1565b5b90600052602060002090600a020160090160009054906101000a900460ff161515145b61117d576040517f08c379a000000000000000000000000000000000000000000000000000000000815260040161117490613315565b60405180910390fd5b600080805490509050606060006040518061014001604052803373ffffffffffffffffffffffffffffffffffffffff1681526020018481526020018b8152602001600081526020018381526020018781526020018a81526020018981526020018881526020016001151581525090806001815401808255809150506001900390600052602060002090600a020160009091909190915060008201518160000160006101000a81548173ffffffffffffffffffffffffffffffffffffffff021916908373ffffffffffffffffffffffffffffffffffffffff160217905550602082015181600101556040820151816002015560608201518160030155608082015181600401908051906020019061129492919061246b565b5060a0820151816005015560c08201518160060190816112b49190613088565b5060e08201518160070190816112ca9190613088565b506101008201518160080190816112e19190613088565b506101208201518160090160006101000a81548160ff0219169083151502179055505050600360003373ffffffffffffffffffffffffffffffffffffffff1673ffffffffffffffffffffffffffffffffffffffff1681526020019081526020016000208290806001815401808255809150506001900390600052602060002001600090919091909150558760046000848152602001908152602001600020908161138b9190613088565b507ff73d293370e4f1e7400c4b731446885e081672897f2feaa40776692f88d8092882898b6040516113bf93929190613335565b60405180910390a1505050505050505050565b6000600360003373ffffffffffffffffffffffffffffffffffffffff1673ffffffffffffffffffffffffffffffffffffffff1681526020019081526020016000208054905090506000600360003373ffffffffffffffffffffffffffffffffffffffff1673ffffffffffffffffffffffffffffffffffffffff168152602001908152602001600020600183611467919061326f565b8154811061147857611477612de1565b5b90600052602060002001549050600115156000828154811061149d5761149c612de1565b5b90600052602060002090600a020160090160009054906101000a900460ff1615151480156114ef575042600082815481106114db576114da612de1565b5b90600052602060002090600a020160050154105b801561151f5750600080828154811061150b5761150a612de1565b5b90600052602060002090600a020160030154115b8061157457506000818154811061153957611538612de1565b5b90600052602060002090600a0201600201546000828154811061155f5761155e612de1565b5b90600052602060002090600a02016003015410155b6115b3576040517f08c379a00000000000000000000000000000000000000000000000000000000081526004016115aa906133e5565b60405180910390fd5b6000600360003373ffffffffffffffffffffffffffffffffffffffff1673ffffffffffffffffffffffffffffffffffffffff1681526020019081526020016000208054905090506000600360003373ffffffffffffffffffffffffffffffffffffffff1673ffffffffffffffffffffffffffffffffffffffff168152602001908152602001600020600183611648919061326f565b8154811061165957611658612de1565b5b906000526020600020015490503373ffffffffffffffffffffffffffffffffffffffff166108fc6000838154811061169457611693612de1565b5b90600052602060002090600a0201600301549081150290604051600060405180830381858888f193505050501580156116d1573d6000803e3d6000fd5b5060008082815481106116e7576116e6612de1565b5b90600052602060002090600a020160090160006101000a81548160ff0219169083151502179055507fc91ccefd1d1e7d8df3c8ab46693d7853bb3276bddcb72155f44bd4e618f97e56816000838154811061174557611744612de1565b5b90600052602060002090600a020160030154604051611765929190613405565b60405180910390a150505050565b6000600360003373ffffffffffffffffffffffffffffffffffffffff1673ffffffffffffffffffffffffffffffffffffffff1681526020019081526020016000208054905090506000600360003373ffffffffffffffffffffffffffffffffffffffff1673ffffffffffffffffffffffffffffffffffffffff168152602001908152602001600020600183611808919061326f565b8154811061181957611818612de1565b5b90600052602060002001549050600115156000828154811061183e5761183d612de1565b5b90600052602060002090600a020160090160009054906101000a900460ff1615151461189f576040517f08c379a0000000000000000000000000000000000000000000000000000000008152600401611896906134a0565b60405180910390fd5b6000600360003373ffffffffffffffffffffffffffffffffffffffff1673ffffffffffffffffffffffffffffffffffffffff1681526020019081526020016000208054905090506000600360003373ffffffffffffffffffffffffffffffffffffffff1673ffffffffffffffffffffffffffffffffffffffff168152602001908152602001600020600183611934919061326f565b8154811061194557611944612de1565b5b90600052602060002001549050600080828154811061196757611966612de1565b5b90600052602060002090600a02016004018054806020026020016040519081016040528092919081815260200182805480156119c257602002820191906000526020600020905b8154815260200190600101908083116119ae575b50505050509050600060018054905003611a795760008083815481106119eb576119ea612de1565b5b90600052602060002090600a020160090160006101000a81548160ff0219169083151502179055507f405cc655c441c5a58e7ddd21b888c0ef95970ba6af6ea5d163552c5bb4490bcb8260008481548110611a4957611a48612de1565b5b90600052602060002090600a020160030154604051611a69929190613405565b60405180910390a1505050611f41565b60005b8151811015611ea15760006001838381518110611a9c57611a9b612de1565b5b602002602001015181548110611ab557611ab4612de1565b5b90600052602060002090600502016040518060c001604052908160008201548152602001600182018054611ae890612eab565b80601f0160208091040260200160405190810160405280929190818152602001828054611b1490612eab565b8015611b615780601f10611b3657610100808354040283529160200191611b61565b820191906000526020600020905b815481529060010190602001808311611b4457829003601f168201915b50505050508152602001600282015481526020016003820160009054906101000a900473ffffffffffffffffffffffffffffffffffffffff1673ffffffffffffffffffffffffffffffffffffffff1673ffffffffffffffffffffffffffffffffffffffff1681526020016004820160009054906101000a900473ffffffffffffffffffffffffffffffffffffffff1673ffffffffffffffffffffffffffffffffffffffff1673ffffffffffffffffffffffffffffffffffffffff1681526020016004820160149054906101000a900460ff16151515158152505090506000600180549050905060016040518060c00160405280846000015181526020018b815260200184604001518152602001846060015173ffffffffffffffffffffffffffffffffffffffff168152602001846080015173ffffffffffffffffffffffffffffffffffffffff168152602001600115158152509080600181540180825580915050600190039060005260206000209060050201600090919091909150600082015181600001556020820151816001019081611cfd9190613088565b506040820151816002015560608201518160030160006101000a81548173ffffffffffffffffffffffffffffffffffffffff021916908373ffffffffffffffffffffffffffffffffffffffff16021790555060808201518160040160006101000a81548173ffffffffffffffffffffffffffffffffffffffff021916908373ffffffffffffffffffffffffffffffffffffffff16021790555060a08201518160040160146101000a81548160ff021916908315150217905550505060008581548110611dcc57611dcb612de1565b5b90600052602060002090600a0201600401819080600181540180825580915050600190039060005260206000200160009091909190915055816060015173ffffffffffffffffffffffffffffffffffffffff166108fc83604001519081150290604051600060405180830381858888f19350505050158015611e52573d6000803e3d6000fd5b507f946cac92be83fcdb549f34b55737a82fb0d6e19cb13af4d59b8ba10b6506431d85828460400151604051611e8a939291906131cc565b60405180910390a150508080600101915050611a7c565b506000808381548110611eb757611eb6612de1565b5b90600052602060002090600a020160090160006101000a81548160ff0219169083151502179055507f405cc655c441c5a58e7ddd21b888c0ef95970ba6af6ea5d163552c5bb4490bcb8260008481548110611f1557611f14612de1565b5b90600052602060002090600a020160030154604051611f35929190613405565b60405180910390a15050505b505050565b6060600080600360003373ffffffffffffffffffffffffffffffffffffffff1673ffffffffffffffffffffffffffffffffffffffff1681526020019081526020016000208054905003611ff357600067ffffffffffffffff811115611fae57611fad6125a5565b5b604051908082528060200260200182016040528015611fe757816020015b611fd46124b8565b815260200190600190039081611fcc5790505b50600091509150612403565b6000600360003373ffffffffffffffffffffffffffffffffffffffff1673ffffffffffffffffffffffffffffffffffffffff16815260200190815260200160002080549050905060008167ffffffffffffffff811115612056576120556125a5565b5b60405190808252806020026020018201604052801561208f57816020015b61207c6124b8565b8152602001906001900390816120745790505b50905060005b828110156123f8576000600360003373ffffffffffffffffffffffffffffffffffffffff1673ffffffffffffffffffffffffffffffffffffffff16815260200190815260200160002082815481106120f0576120ef612de1565b5b90600052602060002001548154811061210c5761210b612de1565b5b90600052602060002090600a0201604051806101400160405290816000820160009054906101000a900473ffffffffffffffffffffffffffffffffffffffff1673ffffffffffffffffffffffffffffffffffffffff1673ffffffffffffffffffffffffffffffffffffffff168152602001600182015481526020016002820154815260200160038201548152602001600482018054806020026020016040519081016040528092919081815260200182805480156121e957602002820191906000526020600020905b8154815260200190600101908083116121d5575b505050505081526020016005820154815260200160068201805461220c90612eab565b80601f016020809104026020016040519081016040528092919081815260200182805461223890612eab565b80156122855780601f1061225a57610100808354040283529160200191612285565b820191906000526020600020905b81548152906001019060200180831161226857829003601f168201915b5050505050815260200160078201805461229e90612eab565b80601f01602080910402602001604051908101604052809291908181526020018280546122ca90612eab565b80156123175780601f106122ec57610100808354040283529160200191612317565b820191906000526020600020905b8154815290600101906020018083116122fa57829003601f168201915b5050505050815260200160088201805461233090612eab565b80601f016020809104026020016040519081016040528092919081815260200182805461235c90612eab565b80156123a95780601f1061237e576101008083540402835291602001916123a9565b820191906000526020600020905b81548152906001019060200180831161238c57829003601f168201915b505050505081526020016009820160009054906101000a900460ff1615151515815250508282815181106123e0576123df612de1565b5b60200260200101819052508080600101915050612095565b508060019350935050505b9091565b6040518060c00160405280600081526020016060815260200160008152602001600073ffffffffffffffffffffffffffffffffffffffff168152602001600073ffffffffffffffffffffffffffffffffffffffff1681526020016000151581525090565b8280548282559060005260206000209081019282156124a7579160200282015b828111156124a657825182559160200191906001019061248b565b5b5090506124b49190612523565b5090565b604051806101400160405280600073ffffffffffffffffffffffffffffffffffffffff16815260200160008152602001600081526020016000815260200160608152602001600081526020016060815260200160608152602001606081526020016000151581525090565b5b8082111561253c576000816000905550600101612524565b5090565b6000604051905090565b600080fd5b600080fd5b6000819050919050565b61256781612554565b811461257257600080fd5b50565b6000813590506125848161255e565b92915050565b600080fd5b600080fd5b6000601f19601f8301169050919050565b7f4e487b7100000000000000000000000000000000000000000000000000000000600052604160045260246000fd5b6125dd82612594565b810181811067ffffffffffffffff821117156125fc576125fb6125a5565b5b80604052505050565b600061260f612540565b905061261b82826125d4565b919050565b600067ffffffffffffffff82111561263b5761263a6125a5565b5b61264482612594565b9050602081019050919050565b82818337600083830152505050565b600061267361266e84612620565b612605565b90508281526020810184848401111561268f5761268e61258f565b5b61269a848285612651565b509392505050565b600082601f8301126126b7576126b661258a565b5b81356126c7848260208601612660565b91505092915050565b600080604083850312156126e7576126e661254a565b5b60006126f585828601612575565b925050602083013567ffffffffffffffff8111156127165761271561254f565b5b612722858286016126a2565b9150509250929050565b6000602082840312156127425761274161254a565b5b600061275084828501612575565b91505092915050565b600081519050919050565b600082825260208201905092915050565b60005b83811015612793578082015181840152602081019050612778565b60008484015250505050565b60006127aa82612759565b6127b48185612764565b93506127c4818560208601612775565b6127cd81612594565b840191505092915050565b600060208201905081810360008301526127f2818461279f565b905092915050565b600081519050919050565b600082825260208201905092915050565b6000819050602082019050919050565b600073ffffffffffffffffffffffffffffffffffffffff82169050919050565b600061285182612826565b9050919050565b61286181612846565b82525050565b61287081612554565b82525050565b600081519050919050565b600082825260208201905092915050565b6000819050602082019050919050565b60006128ae8383612867565b60208301905092915050565b6000602082019050919050565b60006128d282612876565b6128dc8185612881565b93506128e783612892565b8060005b838110156129185781516128ff88826128a2565b975061290a836128ba565b9250506001810190506128eb565b5085935050505092915050565b600082825260208201905092915050565b600061294182612759565b61294b8185612925565b935061295b818560208601612775565b61296481612594565b840191505092915050565b60008115159050919050565b6129848161296f565b82525050565b6000610140830160008301516129a36000860182612858565b5060208301516129b66020860182612867565b5060408301516129c96040860182612867565b5060608301516129dc6060860182612867565b50608083015184820360808601526129f482826128c7565b91505060a0830151612a0960a0860182612867565b5060c083015184820360c0860152612a218282612936565b91505060e083015184820360e0860152612a3b8282612936565b915050610100830151848203610100860152612a578282612936565b915050610120830151612a6e61012086018261297b565b508091505092915050565b6000612a85838361298a565b905092915050565b6000602082019050919050565b6000612aa5826127fa565b612aaf8185612805565b935083602082028501612ac185612816565b8060005b85811015612afd5784840389528151612ade8582612a79565b9450612ae983612a8d565b925060208a01995050600181019050612ac5565b50829750879550505050505092915050565b612b188161296f565b82525050565b60006040820190508181036000830152612b388185612a9a565b9050612b476020830184612b0f565b9392505050565b600081519050919050565b600082825260208201905092915050565b6000819050602082019050919050565b600060c083016000830151612b926000860182612867565b5060208301518482036020860152612baa8282612936565b9150506040830151612bbf6040860182612867565b506060830151612bd26060860182612858565b506080830151612be56080860182612858565b5060a0830151612bf860a086018261297b565b508091505092915050565b6000612c0f8383612b7a565b905092915050565b6000602082019050919050565b6000612c2f82612b4e565b612c398185612b59565b935083602082028501612c4b85612b6a565b8060005b85811015612c875784840389528151612c688582612c03565b9450612c7383612c17565b925060208a01995050600181019050612c4f565b50829750879550505050505092915050565b60006040820190508181036000830152612cb38185612c24565b9050612cc26020830184612b0f565b9392505050565b600080600080600060a08688031215612ce557612ce461254a565b5b6000612cf388828901612575565b955050602086013567ffffffffffffffff811115612d1457612d1361254f565b5b612d20888289016126a2565b945050604086013567ffffffffffffffff811115612d4157612d4061254f565b5b612d4d888289016126a2565b935050606086013567ffffffffffffffff811115612d6e57612d6d61254f565b5b612d7a888289016126a2565b9250506080612d8b88828901612575565b9150509295509295909350565b600060208284031215612dae57612dad61254a565b5b600082013567ffffffffffffffff811115612dcc57612dcb61254f565b5b612dd8848285016126a2565b91505092915050565b7f4e487b7100000000000000000000000000000000000000000000000000000000600052603260045260246000fd5b7f66756e647261697365206973206e6f7420616374697665000000000000000000600082015250565b6000612e46601783612764565b9150612e5182612e10565b602082019050919050565b60006020820190508181036000830152612e7581612e39565b9050919050565b7f4e487b7100000000000000000000000000000000000000000000000000000000600052602260045260246000fd5b60006002820490506001821680612ec357607f821691505b602082108103612ed657612ed5612e7c565b5b50919050565b60008190508160005260206000209050919050565b60006020601f8301049050919050565b600082821b905092915050565b600060088302612f3e7fffffffffffffffffffffffffffffffffffffffffffffffffffffffffffffffff82612f01565b612f488683612f01565b95508019841693508086168417925050509392505050565b6000819050919050565b6000612f85612f80612f7b84612554565b612f60565b612554565b9050919050565b6000819050919050565b612f9f83612f6a565b612fb3612fab82612f8c565b848454612f0e565b825550505050565b600090565b612fc8612fbb565b612fd3818484612f96565b505050565b5b81811015612ff757612fec600082612fc0565b600181019050612fd9565b5050565b601f82111561303c5761300d81612edc565b61301684612ef1565b81016020851015613025578190505b61303961303185612ef1565b830182612fd8565b50505b505050565b600082821c905092915050565b600061305f60001984600802613041565b1980831691505092915050565b6000613078838361304e565b9150826002028217905092915050565b61309182612759565b67ffffffffffffffff8111156130aa576130a96125a5565b5b6130b48254612eab565b6130bf828285612ffb565b600060209050601f8311600181146130f257600084156130e0578287015190505b6130ea858261306c565b865550613152565b601f19841661310086612edc565b60005b8281101561312857848901518255600182019150602085019450602081019050613103565b868310156131455784890151613141601f89168261304e565b8355505b6001600288020188555050505b505050505050565b7f4e487b7100000000000000000000000000000000000000000000000000000000600052601160045260246000fd5b600061319482612554565b915061319f83612554565b92508282019050808211156131b7576131b661315a565b5b92915050565b6131c681612554565b82525050565b60006060820190506131e160008301866131bd565b6131ee60208301856131bd565b6131fb60408301846131bd565b949350505050565b7f546869732066756e6420494420646f6573206e6f742065786973740000000000600082015250565b6000613239601b83612764565b915061324482613203565b602082019050919050565b600060208201905081810360008301526132688161322c565b9050919050565b600061327a82612554565b915061328583612554565b925082820390508181111561329d5761329c61315a565b5b92915050565b7f596f7520616c72656164792068617665206f6e65206f70656e6e696e6720467560008201527f6e64726169736500000000000000000000000000000000000000000000000000602082015250565b60006132ff602783612764565b915061330a826132a3565b604082019050919050565b6000602082019050818103600083015261332e816132f2565b9050919050565b600060608201905061334a60008301866131bd565b818103602083015261335c818561279f565b905061336b60408301846131bd565b949350505050565b7f54686520646561646c696e6520686176656e27742070617373656420616e642060008201527f74686520676f616c206861736e2774206265656e207265616368656400000000602082015250565b60006133cf603c83612764565b91506133da82613373565b604082019050919050565b600060208201905081810360008301526133fe816133c2565b9050919050565b600060408201905061341a60008301856131bd565b61342760208301846131bd565b9392505050565b7f546865206d6f6e65792068617320616c7265616479206265656e20776974686460008201527f7261776e00000000000000000000000000000000000000000000000000000000602082015250565b600061348a602483612764565b91506134958261342e565b604082019050919050565b600060208201905081810360008301526134b98161347d565b905091905056fea26469706673582212200ff2a56d495d0bf321eaf0450548f288fd0ed1bdd09345f1893d18f011b28f6364736f6c63430008180033",
  "linkReferences": {},
  "deployedLinkReferences": {}
}