{
  "_format": "hh-sol-artifact-1",
  "contractName": "TrustableFund",
  "sourceName": "contracts/TrustableFund.sol",
  "abi": [
    {
      "anonymous": false,
      "inputs": [
        {
          "indexed": false,
          "internalType": "uint256",
          "name": "fundID",
          "type": "uint256"
        },
        {
          "indexed": false,
          "internalType": "uint256",
          "name": "amount",
          "type": "uint256"
        }
      ],
      "name": "CancelSuccess",
      "type": "event"
    },
    {
      "anonymous": false,
      "inputs": [
        {
          "indexed": false,
          "internalType": "uint256",
          "name": "fundID",
          "type": "uint256"
        },
        {
          "indexed": false,
          "internalType": "string",
          "name": "storyTitle",
          "type": "string"
        },
        {
          "indexed": false,
          "internalType": "uint256",
          "name": "goal",
          "type": "uint256"
        }
      ],
      "name": "CreateFundSuccess",
      "type": "event"
    },
    {
      "anonymous": false,
      "inputs": [
        {
          "indexed": false,
          "internalType": "uint256",
          "name": "fundID",
          "type": "uint256"
        },
        {
          "indexed": false,
          "internalType": "uint256",
          "name": "donateID",
          "type": "uint256"
        },
        {
          "indexed": false,
          "internalType": "uint256",
          "name": "amout",
          "type": "uint256"
        }
      ],
      "name": "DonateSuccess",
      "type": "event"
    },
    {
      "anonymous": false,
      "inputs": [
        {
          "indexed": false,
          "internalType": "uint256",
          "name": "fundID",
          "type": "uint256"
        },
        {
          "indexed": false,
          "internalType": "uint256",
          "name": "donateID",
          "type": "uint256"
        },
        {
          "indexed": false,
          "internalType": "uint256",
          "name": "amount",
          "type": "uint256"
        }
      ],
      "name": "RefundSuccess",
      "type": "event"
    },
    {
      "anonymous": false,
      "inputs": [
        {
          "indexed": false,
          "internalType": "uint256",
          "name": "fundID",
          "type": "uint256"
        },
        {
          "indexed": false,
          "internalType": "uint256",
          "name": "amount",
          "type": "uint256"
        }
      ],
      "name": "WithdrawSuccess",
      "type": "event"
    },
    {
      "inputs": [
        {
          "internalType": "string",
          "name": "_time",
          "type": "string"
        }
      ],
      "name": "cancelFundraise",
      "outputs": [],
      "stateMutability": "payable",
      "type": "function"
    },
    {
      "inputs": [
        {
          "internalType": "uint256",
          "name": "_fundID",
          "type": "uint256"
        },
        {
          "internalType": "string",
          "name": "_time",
          "type": "string"
        }
      ],
      "name": "donation",
      "outputs": [],
      "stateMutability": "payable",
      "type": "function"
    },
    {
      "inputs": [
        {
          "internalType": "uint256",
          "name": "_fundID",
          "type": "uint256"
        }
      ],
      "name": "getDonationByFundraise",
      "outputs": [
        {
          "components": [
            {
              "internalType": "uint256",
              "name": "fundID",
              "type": "uint256"
            },
            {
              "internalType": "string",
              "name": "time",
              "type": "string"
            },
            {
              "internalType": "uint256",
              "name": "transAmount",
              "type": "uint256"
            },
            {
              "internalType": "address",
              "name": "donator",
              "type": "address"
            },
            {
              "internalType": "address",
              "name": "fundraiser",
              "type": "address"
            },
            {
              "internalType": "bool",
              "name": "refund",
              "type": "bool"
            }
          ],
          "internalType": "struct TrustableFund.DonationHistory[]",
          "name": "",
          "type": "tuple[]"
        },
        {
          "internalType": "bool",
          "name": "",
          "type": "bool"
        }
      ],
      "stateMutability": "view",
      "type": "function"
    },
    {
      "inputs": [],
      "name": "getDonationHistoryByUser",
      "outputs": [
        {
          "components": [
            {
              "internalType": "uint256",
              "name": "fundID",
              "type": "uint256"
            },
            {
              "internalType": "string",
              "name": "time",
              "type": "string"
            },
            {
              "internalType": "uint256",
              "name": "transAmount",
              "type": "uint256"
            },
            {
              "internalType": "address",
              "name": "donator",
              "type": "address"
            },
            {
              "internalType": "address",
              "name": "fundraiser",
              "type": "address"
            },
            {
              "internalType": "bool",
              "name": "refund",
              "type": "bool"
            }
          ],
          "internalType": "struct TrustableFund.DonationHistory[]",
          "name": "",
          "type": "tuple[]"
        },
        {
          "internalType": "bool",
          "name": "",
          "type": "bool"
        }
      ],
      "stateMutability": "view",
      "type": "function"
    },
    {
      "inputs": [],
      "name": "getFundList",
      "outputs": [
        {
          "components": [
            {
              "internalType": "address",
              "name": "ownerAddress",
              "type": "address"
            },
            {
              "internalType": "uint256",
              "name": "fundID",
              "type": "uint256"
            },
            {
              "internalType": "uint256",
              "name": "goal",
              "type": "uint256"
            },
            {
              "internalType": "uint256",
              "name": "donation",
              "type": "uint256"
            },
            {
              "internalType": "uint256[]",
              "name": "donationList",
              "type": "uint256[]"
            },
            {
              "internalType": "uint256",
              "name": "deadLine",
              "type": "uint256"
            },
            {
              "internalType": "string",
              "name": "storyTitle",
              "type": "string"
            },
            {
              "internalType": "string",
              "name": "storyText",
              "type": "string"
            },
            {
              "internalType": "string",
              "name": "imageurl",
              "type": "string"
            },
            {
              "internalType": "bool",
              "name": "active",
              "type": "bool"
            }
          ],
          "internalType": "struct TrustableFund.Fundraise[]",
          "name": "",
          "type": "tuple[]"
        },
        {
          "internalType": "bool",
          "name": "",
          "type": "bool"
        }
      ],
      "stateMutability": "view",
      "type": "function"
    },
    {
      "inputs": [],
      "name": "getFundraiseByUser",
      "outputs": [
        {
          "components": [
            {
              "internalType": "address",
              "name": "ownerAddress",
              "type": "address"
            },
            {
              "internalType": "uint256",
              "name": "fundID",
              "type": "uint256"
            },
            {
              "internalType": "uint256",
              "name": "goal",
              "type": "uint256"
            },
            {
              "internalType": "uint256",
              "name": "donation",
              "type": "uint256"
            },
            {
              "internalType": "uint256[]",
              "name": "donationList",
              "type": "uint256[]"
            },
            {
              "internalType": "uint256",
              "name": "deadLine",
              "type": "uint256"
            },
            {
              "internalType": "string",
              "name": "storyTitle",
              "type": "string"
            },
            {
              "internalType": "string",
              "name": "storyText",
              "type": "string"
            },
            {
              "internalType": "string",
              "name": "imageurl",
              "type": "string"
            },
            {
              "internalType": "bool",
              "name": "active",
              "type": "bool"
            }
          ],
          "internalType": "struct TrustableFund.Fundraise[]",
          "name": "",
          "type": "tuple[]"
        },
        {
          "internalType": "bool",
          "name": "",
          "type": "bool"
        }
      ],
      "stateMutability": "view",
      "type": "function"
    },
    {
      "inputs": [
        {
          "internalType": "uint256",
          "name": "_goal",
          "type": "uint256"
        },
        {
          "internalType": "string",
          "name": "_storyTitle",
          "type": "string"
        },
        {
          "internalType": "string",
          "name": "_storyText",
          "type": "string"
        },
        {
          "internalType": "string",
          "name": "_imageurl",
          "type": "string"
        },
        {
          "internalType": "uint256",
          "name": "_deadline",
          "type": "uint256"
        }
      ],
      "name": "publishFundraise",
      "outputs": [],
      "stateMutability": "nonpayable",
      "type": "function"
    },
    {
      "inputs": [],
      "name": "withdrawFundraise",
      "outputs": [],
      "stateMutability": "payable",
      "type": "function"
    }
  ],
  "bytecode": "0x608060405234801561001057600080fd5b50613301806100206000396000f3fe60806040526004361061007b5760003560e01c8063a9a6ebfb1161004e578063a9a6ebfb14610132578063acb0e7c11461015b578063bd5b591714610165578063c2b3e439146101815761007b565b80633443554c1461008057806371a016431461009c578063742d5639146100c857806382e4df3e146100f4575b600080fd5b61009a60048036038101906100959190612569565b6101ad565b005b3480156100a857600080fd5b506100b1610504565b6040516100bf92919061291e565b60405180910390f35b3480156100d457600080fd5b506100dd610814565b6040516100eb929190612a99565b60405180910390f35b34801561010057600080fd5b5061011b60048036038101906101169190612ac9565b610b9a565b604051610129929190612a99565b60405180910390f35b34801561013e57600080fd5b5061015960048036038101906101549190612af6565b610ef8565b005b61016361126b565b005b61017f600480360381019061017a9190612bc5565b61160c565b005b34801561018d57600080fd5b50610196611ddf565b6040516101a492919061291e565b60405180910390f35b60011515600083815481106101c5576101c4612c0e565b5b90600052602060002090600a020160090160009054906101000a900460ff16151514610226576040517f08c379a000000000000000000000000000000000000000000000000000000000815260040161021d90612c9a565b60405180910390fd5b6000600180549050905060016040518060c001604052808581526020018481526020013481526020013373ffffffffffffffffffffffffffffffffffffffff1681526020016000868154811061027f5761027e612c0e565b5b90600052602060002090600a020160000160009054906101000a900473ffffffffffffffffffffffffffffffffffffffff1673ffffffffffffffffffffffffffffffffffffffff16815260200160001515815250908060018154018082558091505060019003906000526020600020906005020160009091909190915060008201518160000155602082015181600101908161031b9190612ec6565b506040820151816002015560608201518160030160006101000a81548173ffffffffffffffffffffffffffffffffffffffff021916908373ffffffffffffffffffffffffffffffffffffffff16021790555060808201518160040160006101000a81548173ffffffffffffffffffffffffffffffffffffffff021916908373ffffffffffffffffffffffffffffffffffffffff16021790555060a08201518160040160146101000a81548160ff021916908315150217905550505034600084815481106103eb576103ea612c0e565b5b90600052602060002090600a0201600301600082825461040b9190612fc7565b925050819055506000838154811061042657610425612c0e565b5b90600052602060002090600a0201600401819080600181540180825580915050600190039060005260206000200160009091909190915055600260003373ffffffffffffffffffffffffffffffffffffffff1673ffffffffffffffffffffffffffffffffffffffff1681526020019081526020016000208190806001815401808255809150506001900390600052602060002001600090919091909150557f53c7cf71fdcfd75abacda89607ee3e759afa8d572a48eb590b34d3cc9f063df78382346040516104f79392919061300a565b60405180910390a1505050565b6060600080600181805480602002602001604051908101604052809291908181526020016000905b8282101561080657838290600052602060002090600a0201604051806101400160405290816000820160009054906101000a900473ffffffffffffffffffffffffffffffffffffffff1673ffffffffffffffffffffffffffffffffffffffff1673ffffffffffffffffffffffffffffffffffffffff1681526020016001820154815260200160028201548152602001600382015481526020016004820180548060200260200160405190810160405280929190818152602001828054801561061357602002820191906000526020600020905b8154815260200190600101908083116105ff575b505050505081526020016005820154815260200160068201805461063690612ce9565b80601f016020809104026020016040519081016040528092919081815260200182805461066290612ce9565b80156106af5780601f10610684576101008083540402835291602001916106af565b820191906000526020600020905b81548152906001019060200180831161069257829003601f168201915b505050505081526020016007820180546106c890612ce9565b80601f01602080910402602001604051908101604052809291908181526020018280546106f490612ce9565b80156107415780601f1061071657610100808354040283529160200191610741565b820191906000526020600020905b81548152906001019060200180831161072457829003601f168201915b5050505050815260200160088201805461075a90612ce9565b80601f016020809104026020016040519081016040528092919081815260200182805461078690612ce9565b80156107d35780601f106107a8576101008083540402835291602001916107d3565b820191906000526020600020905b8154815290600101906020018083116107b657829003601f168201915b505050505081526020016009820160009054906101000a900460ff1615151515815250508152602001906001019061052c565b505050509150915091509091565b6060600080600260003373ffffffffffffffffffffffffffffffffffffffff1673ffffffffffffffffffffffffffffffffffffffff16815260200190815260200160002080549050036108c157600067ffffffffffffffff81111561087c5761087b61243e565b5b6040519080825280602002602001820160405280156108b557816020015b6108a26122a0565b81526020019060019003908161089a5790505b50600091509150610b96565b6000600260003373ffffffffffffffffffffffffffffffffffffffff1673ffffffffffffffffffffffffffffffffffffffff16815260200190815260200160002080549050905060008167ffffffffffffffff8111156109245761092361243e565b5b60405190808252806020026020018201604052801561095d57816020015b61094a6122a0565b8152602001906001900390816109425790505b50905060005b82811015610b8b576001600260003373ffffffffffffffffffffffffffffffffffffffff1673ffffffffffffffffffffffffffffffffffffffff16815260200190815260200160002082815481106109be576109bd612c0e565b5b9060005260206000200154815481106109da576109d9612c0e565b5b90600052602060002090600502016040518060c001604052908160008201548152602001600182018054610a0d90612ce9565b80601f0160208091040260200160405190810160405280929190818152602001828054610a3990612ce9565b8015610a865780601f10610a5b57610100808354040283529160200191610a86565b820191906000526020600020905b815481529060010190602001808311610a6957829003601f168201915b50505050508152602001600282015481526020016003820160009054906101000a900473ffffffffffffffffffffffffffffffffffffffff1673ffffffffffffffffffffffffffffffffffffffff1673ffffffffffffffffffffffffffffffffffffffff1681526020016004820160009054906101000a900473ffffffffffffffffffffffffffffffffffffffff1673ffffffffffffffffffffffffffffffffffffffff1673ffffffffffffffffffffffffffffffffffffffff1681526020016004820160149054906101000a900460ff161515151581525050828281518110610b7357610b72612c0e565b5b60200260200101819052508080600101915050610963565b508060019350935050505b9091565b606060008060008481548110610bb357610bb2612c0e565b5b90600052602060002090600a02016004018054905003610c2d57600067ffffffffffffffff811115610be857610be761243e565b5b604051908082528060200260200182016040528015610c2157816020015b610c0e6122a0565b815260200190600190039081610c065790505b50600091509150610ef3565b6000808481548110610c4257610c41612c0e565b5b90600052602060002090600a0201600401805480602002602001604051908101604052809291908181526020018280548015610c9d57602002820191906000526020600020905b815481526020019060010190808311610c89575b505050505090506000815167ffffffffffffffff811115610cc157610cc061243e565b5b604051908082528060200260200182016040528015610cfa57816020015b610ce76122a0565b815260200190600190039081610cdf5790505b50905060005b8251811015610ee8576001838281518110610d1e57610d1d612c0e565b5b602002602001015181548110610d3757610d36612c0e565b5b90600052602060002090600502016040518060c001604052908160008201548152602001600182018054610d6a90612ce9565b80601f0160208091040260200160405190810160405280929190818152602001828054610d9690612ce9565b8015610de35780601f10610db857610100808354040283529160200191610de3565b820191906000526020600020905b815481529060010190602001808311610dc657829003601f168201915b50505050508152602001600282015481526020016003820160009054906101000a900473ffffffffffffffffffffffffffffffffffffffff1673ffffffffffffffffffffffffffffffffffffffff1673ffffffffffffffffffffffffffffffffffffffff1681526020016004820160009054906101000a900473ffffffffffffffffffffffffffffffffffffffff1673ffffffffffffffffffffffffffffffffffffffff1673ffffffffffffffffffffffffffffffffffffffff1681526020016004820160149054906101000a900460ff161515151581525050828281518110610ed057610ecf612c0e565b5b60200260200101819052508080600101915050610d00565b508060019350935050505b915091565b6000600360003373ffffffffffffffffffffffffffffffffffffffff1673ffffffffffffffffffffffffffffffffffffffff1681526020019081526020016000208054905090506000808214610fb357600360003373ffffffffffffffffffffffffffffffffffffffff1673ffffffffffffffffffffffffffffffffffffffff168152602001908152602001600020600183610f949190613041565b81548110610fa557610fa4612c0e565b5b906000526020600020015490505b6000821480610ff857506000151560008281548110610fd557610fd4612c0e565b5b90600052602060002090600a020160090160009054906101000a900460ff161515145b611037576040517f08c379a000000000000000000000000000000000000000000000000000000000815260040161102e906130e7565b60405180910390fd5b600080805490509050606060006040518061014001604052803373ffffffffffffffffffffffffffffffffffffffff1681526020018481526020018b8152602001600081526020018381526020018781526020018a81526020018981526020018881526020016001151581525090806001815401808255809150506001900390600052602060002090600a020160009091909190915060008201518160000160006101000a81548173ffffffffffffffffffffffffffffffffffffffff021916908373ffffffffffffffffffffffffffffffffffffffff160217905550602082015181600101556040820151816002015560608201518160030155608082015181600401908051906020019061114e929190612304565b5060a0820151816005015560c082015181600601908161116e9190612ec6565b5060e08201518160070190816111849190612ec6565b5061010082015181600801908161119b9190612ec6565b506101208201518160090160006101000a81548160ff0219169083151502179055505050600360003373ffffffffffffffffffffffffffffffffffffffff1673ffffffffffffffffffffffffffffffffffffffff1681526020019081526020016000208290806001815401808255809150506001900390600052602060002001600090919091909150557ff73d293370e4f1e7400c4b731446885e081672897f2feaa40776692f88d8092882898b60405161125893929190613140565b60405180910390a1505050505050505050565b6000600360003373ffffffffffffffffffffffffffffffffffffffff1673ffffffffffffffffffffffffffffffffffffffff1681526020019081526020016000208054905090506000600360003373ffffffffffffffffffffffffffffffffffffffff1673ffffffffffffffffffffffffffffffffffffffff1681526020019081526020016000206001836113009190613041565b8154811061131157611310612c0e565b5b90600052602060002001549050600115156000828154811061133657611335612c0e565b5b90600052602060002090600a020160090160009054906101000a900460ff1615151480156113885750426000828154811061137457611373612c0e565b5b90600052602060002090600a020160050154105b80156113b8575060008082815481106113a4576113a3612c0e565b5b90600052602060002090600a020160030154115b8061140d5750600081815481106113d2576113d1612c0e565b5b90600052602060002090600a020160020154600082815481106113f8576113f7612c0e565b5b90600052602060002090600a02016003015410155b61144c576040517f08c379a0000000000000000000000000000000000000000000000000000000008152600401611443906131f0565b60405180910390fd5b6000600360003373ffffffffffffffffffffffffffffffffffffffff1673ffffffffffffffffffffffffffffffffffffffff1681526020019081526020016000208054905090506000600360003373ffffffffffffffffffffffffffffffffffffffff1673ffffffffffffffffffffffffffffffffffffffff1681526020019081526020016000206001836114e19190613041565b815481106114f2576114f1612c0e565b5b906000526020600020015490503373ffffffffffffffffffffffffffffffffffffffff166108fc6000838154811061152d5761152c612c0e565b5b90600052602060002090600a0201600301549081150290604051600060405180830381858888f1935050505015801561156a573d6000803e3d6000fd5b5060008082815481106115805761157f612c0e565b5b90600052602060002090600a020160090160006101000a81548160ff0219169083151502179055507fc91ccefd1d1e7d8df3c8ab46693d7853bb3276bddcb72155f44bd4e618f97e5681600083815481106115de576115dd612c0e565b5b90600052602060002090600a0201600301546040516115fe929190613210565b60405180910390a150505050565b6000600360003373ffffffffffffffffffffffffffffffffffffffff1673ffffffffffffffffffffffffffffffffffffffff1681526020019081526020016000208054905090506000600360003373ffffffffffffffffffffffffffffffffffffffff1673ffffffffffffffffffffffffffffffffffffffff1681526020019081526020016000206001836116a19190613041565b815481106116b2576116b1612c0e565b5b9060005260206000200154905060011515600082815481106116d7576116d6612c0e565b5b90600052602060002090600a020160090160009054906101000a900460ff16151514611738576040517f08c379a000000000000000000000000000000000000000000000000000000000815260040161172f906132ab565b60405180910390fd5b6000600360003373ffffffffffffffffffffffffffffffffffffffff1673ffffffffffffffffffffffffffffffffffffffff1681526020019081526020016000208054905090506000600360003373ffffffffffffffffffffffffffffffffffffffff1673ffffffffffffffffffffffffffffffffffffffff1681526020019081526020016000206001836117cd9190613041565b815481106117de576117dd612c0e565b5b906000526020600020015490506000808281548110611800576117ff612c0e565b5b90600052602060002090600a020160040180548060200260200160405190810160405280929190818152602001828054801561185b57602002820191906000526020600020905b815481526020019060010190808311611847575b5050505050905060006001805490500361191257600080838154811061188457611883612c0e565b5b90600052602060002090600a020160090160006101000a81548160ff0219169083151502179055507f405cc655c441c5a58e7ddd21b888c0ef95970ba6af6ea5d163552c5bb4490bcb82600084815481106118e2576118e1612c0e565b5b90600052602060002090600a020160030154604051611902929190613210565b60405180910390a1505050611dda565b60005b8151811015611d3a576000600183838151811061193557611934612c0e565b5b60200260200101518154811061194e5761194d612c0e565b5b90600052602060002090600502016040518060c00160405290816000820154815260200160018201805461198190612ce9565b80601f01602080910402602001604051908101604052809291908181526020018280546119ad90612ce9565b80156119fa5780601f106119cf576101008083540402835291602001916119fa565b820191906000526020600020905b8154815290600101906020018083116119dd57829003601f168201915b50505050508152602001600282015481526020016003820160009054906101000a900473ffffffffffffffffffffffffffffffffffffffff1673ffffffffffffffffffffffffffffffffffffffff1673ffffffffffffffffffffffffffffffffffffffff1681526020016004820160009054906101000a900473ffffffffffffffffffffffffffffffffffffffff1673ffffffffffffffffffffffffffffffffffffffff1673ffffffffffffffffffffffffffffffffffffffff1681526020016004820160149054906101000a900460ff16151515158152505090506000600180549050905060016040518060c00160405280846000015181526020018b815260200184604001518152602001846060015173ffffffffffffffffffffffffffffffffffffffff168152602001846080015173ffffffffffffffffffffffffffffffffffffffff168152602001600115158152509080600181540180825580915050600190039060005260206000209060050201600090919091909150600082015181600001556020820151816001019081611b969190612ec6565b506040820151816002015560608201518160030160006101000a81548173ffffffffffffffffffffffffffffffffffffffff021916908373ffffffffffffffffffffffffffffffffffffffff16021790555060808201518160040160006101000a81548173ffffffffffffffffffffffffffffffffffffffff021916908373ffffffffffffffffffffffffffffffffffffffff16021790555060a08201518160040160146101000a81548160ff021916908315150217905550505060008581548110611c6557611c64612c0e565b5b90600052602060002090600a0201600401819080600181540180825580915050600190039060005260206000200160009091909190915055816060015173ffffffffffffffffffffffffffffffffffffffff166108fc83604001519081150290604051600060405180830381858888f19350505050158015611ceb573d6000803e3d6000fd5b507f946cac92be83fcdb549f34b55737a82fb0d6e19cb13af4d59b8ba10b6506431d85828460400151604051611d239392919061300a565b60405180910390a150508080600101915050611915565b506000808381548110611d5057611d4f612c0e565b5b90600052602060002090600a020160090160006101000a81548160ff0219169083151502179055507f405cc655c441c5a58e7ddd21b888c0ef95970ba6af6ea5d163552c5bb4490bcb8260008481548110611dae57611dad612c0e565b5b90600052602060002090600a020160030154604051611dce929190613210565b60405180910390a15050505b505050565b6060600080600360003373ffffffffffffffffffffffffffffffffffffffff1673ffffffffffffffffffffffffffffffffffffffff1681526020019081526020016000208054905003611e8c57600067ffffffffffffffff811115611e4757611e4661243e565b5b604051908082528060200260200182016040528015611e8057816020015b611e6d612351565b815260200190600190039081611e655790505b5060009150915061229c565b6000600360003373ffffffffffffffffffffffffffffffffffffffff1673ffffffffffffffffffffffffffffffffffffffff16815260200190815260200160002080549050905060008167ffffffffffffffff811115611eef57611eee61243e565b5b604051908082528060200260200182016040528015611f2857816020015b611f15612351565b815260200190600190039081611f0d5790505b50905060005b82811015612291576000600360003373ffffffffffffffffffffffffffffffffffffffff1673ffffffffffffffffffffffffffffffffffffffff1681526020019081526020016000208281548110611f8957611f88612c0e565b5b906000526020600020015481548110611fa557611fa4612c0e565b5b90600052602060002090600a0201604051806101400160405290816000820160009054906101000a900473ffffffffffffffffffffffffffffffffffffffff1673ffffffffffffffffffffffffffffffffffffffff1673ffffffffffffffffffffffffffffffffffffffff1681526020016001820154815260200160028201548152602001600382015481526020016004820180548060200260200160405190810160405280929190818152602001828054801561208257602002820191906000526020600020905b81548152602001906001019080831161206e575b50505050508152602001600582015481526020016006820180546120a590612ce9565b80601f01602080910402602001604051908101604052809291908181526020018280546120d190612ce9565b801561211e5780601f106120f35761010080835404028352916020019161211e565b820191906000526020600020905b81548152906001019060200180831161210157829003601f168201915b5050505050815260200160078201805461213790612ce9565b80601f016020809104026020016040519081016040528092919081815260200182805461216390612ce9565b80156121b05780601f10612185576101008083540402835291602001916121b0565b820191906000526020600020905b81548152906001019060200180831161219357829003601f168201915b505050505081526020016008820180546121c990612ce9565b80601f01602080910402602001604051908101604052809291908181526020018280546121f590612ce9565b80156122425780601f1061221757610100808354040283529160200191612242565b820191906000526020600020905b81548152906001019060200180831161222557829003601f168201915b505050505081526020016009820160009054906101000a900460ff16151515158152505082828151811061227957612278612c0e565b5b60200260200101819052508080600101915050611f2e565b508060019350935050505b9091565b6040518060c00160405280600081526020016060815260200160008152602001600073ffffffffffffffffffffffffffffffffffffffff168152602001600073ffffffffffffffffffffffffffffffffffffffff1681526020016000151581525090565b828054828255906000526020600020908101928215612340579160200282015b8281111561233f578251825591602001919060010190612324565b5b50905061234d91906123bc565b5090565b604051806101400160405280600073ffffffffffffffffffffffffffffffffffffffff16815260200160008152602001600081526020016000815260200160608152602001600081526020016060815260200160608152602001606081526020016000151581525090565b5b808211156123d55760008160009055506001016123bd565b5090565b6000604051905090565b600080fd5b600080fd5b6000819050919050565b612400816123ed565b811461240b57600080fd5b50565b60008135905061241d816123f7565b92915050565b600080fd5b600080fd5b6000601f19601f8301169050919050565b7f4e487b7100000000000000000000000000000000000000000000000000000000600052604160045260246000fd5b6124768261242d565b810181811067ffffffffffffffff821117156124955761249461243e565b5b80604052505050565b60006124a86123d9565b90506124b4828261246d565b919050565b600067ffffffffffffffff8211156124d4576124d361243e565b5b6124dd8261242d565b9050602081019050919050565b82818337600083830152505050565b600061250c612507846124b9565b61249e565b90508281526020810184848401111561252857612527612428565b5b6125338482856124ea565b509392505050565b600082601f8301126125505761254f612423565b5b81356125608482602086016124f9565b91505092915050565b600080604083850312156125805761257f6123e3565b5b600061258e8582860161240e565b925050602083013567ffffffffffffffff8111156125af576125ae6123e8565b5b6125bb8582860161253b565b9150509250929050565b600081519050919050565b600082825260208201905092915050565b6000819050602082019050919050565b600073ffffffffffffffffffffffffffffffffffffffff82169050919050565b600061261c826125f1565b9050919050565b61262c81612611565b82525050565b61263b816123ed565b82525050565b600081519050919050565b600082825260208201905092915050565b6000819050602082019050919050565b60006126798383612632565b60208301905092915050565b6000602082019050919050565b600061269d82612641565b6126a7818561264c565b93506126b28361265d565b8060005b838110156126e35781516126ca888261266d565b97506126d583612685565b9250506001810190506126b6565b5085935050505092915050565b600081519050919050565b600082825260208201905092915050565b60005b8381101561272a57808201518184015260208101905061270f565b60008484015250505050565b6000612741826126f0565b61274b81856126fb565b935061275b81856020860161270c565b6127648161242d565b840191505092915050565b60008115159050919050565b6127848161276f565b82525050565b6000610140830160008301516127a36000860182612623565b5060208301516127b66020860182612632565b5060408301516127c96040860182612632565b5060608301516127dc6060860182612632565b50608083015184820360808601526127f48282612692565b91505060a083015161280960a0860182612632565b5060c083015184820360c08601526128218282612736565b91505060e083015184820360e086015261283b8282612736565b9150506101008301518482036101008601526128578282612736565b91505061012083015161286e61012086018261277b565b508091505092915050565b6000612885838361278a565b905092915050565b6000602082019050919050565b60006128a5826125c5565b6128af81856125d0565b9350836020820285016128c1856125e1565b8060005b858110156128fd57848403895281516128de8582612879565b94506128e98361288d565b925060208a019950506001810190506128c5565b50829750879550505050505092915050565b6129188161276f565b82525050565b60006040820190508181036000830152612938818561289a565b9050612947602083018461290f565b9392505050565b600081519050919050565b600082825260208201905092915050565b6000819050602082019050919050565b600060c0830160008301516129926000860182612632565b50602083015184820360208601526129aa8282612736565b91505060408301516129bf6040860182612632565b5060608301516129d26060860182612623565b5060808301516129e56080860182612623565b5060a08301516129f860a086018261277b565b508091505092915050565b6000612a0f838361297a565b905092915050565b6000602082019050919050565b6000612a2f8261294e565b612a398185612959565b935083602082028501612a4b8561296a565b8060005b85811015612a875784840389528151612a688582612a03565b9450612a7383612a17565b925060208a01995050600181019050612a4f565b50829750879550505050505092915050565b60006040820190508181036000830152612ab38185612a24565b9050612ac2602083018461290f565b9392505050565b600060208284031215612adf57612ade6123e3565b5b6000612aed8482850161240e565b91505092915050565b600080600080600060a08688031215612b1257612b116123e3565b5b6000612b208882890161240e565b955050602086013567ffffffffffffffff811115612b4157612b406123e8565b5b612b4d8882890161253b565b945050604086013567ffffffffffffffff811115612b6e57612b6d6123e8565b5b612b7a8882890161253b565b935050606086013567ffffffffffffffff811115612b9b57612b9a6123e8565b5b612ba78882890161253b565b9250506080612bb88882890161240e565b9150509295509295909350565b600060208284031215612bdb57612bda6123e3565b5b600082013567ffffffffffffffff811115612bf957612bf86123e8565b5b612c058482850161253b565b91505092915050565b7f4e487b7100000000000000000000000000000000000000000000000000000000600052603260045260246000fd5b600082825260208201905092915050565b7f66756e647261697365206973206e6f7420616374697665000000000000000000600082015250565b6000612c84601783612c3d565b9150612c8f82612c4e565b602082019050919050565b60006020820190508181036000830152612cb381612c77565b9050919050565b7f4e487b7100000000000000000000000000000000000000000000000000000000600052602260045260246000fd5b60006002820490506001821680612d0157607f821691505b602082108103612d1457612d13612cba565b5b50919050565b60008190508160005260206000209050919050565b60006020601f8301049050919050565b600082821b905092915050565b600060088302612d7c7fffffffffffffffffffffffffffffffffffffffffffffffffffffffffffffffff82612d3f565b612d868683612d3f565b95508019841693508086168417925050509392505050565b6000819050919050565b6000612dc3612dbe612db9846123ed565b612d9e565b6123ed565b9050919050565b6000819050919050565b612ddd83612da8565b612df1612de982612dca565b848454612d4c565b825550505050565b600090565b612e06612df9565b612e11818484612dd4565b505050565b5b81811015612e3557612e2a600082612dfe565b600181019050612e17565b5050565b601f821115612e7a57612e4b81612d1a565b612e5484612d2f565b81016020851015612e63578190505b612e77612e6f85612d2f565b830182612e16565b50505b505050565b600082821c905092915050565b6000612e9d60001984600802612e7f565b1980831691505092915050565b6000612eb68383612e8c565b9150826002028217905092915050565b612ecf826126f0565b67ffffffffffffffff811115612ee857612ee761243e565b5b612ef28254612ce9565b612efd828285612e39565b600060209050601f831160018114612f305760008415612f1e578287015190505b612f288582612eaa565b865550612f90565b601f198416612f3e86612d1a565b60005b82811015612f6657848901518255600182019150602085019450602081019050612f41565b86831015612f835784890151612f7f601f891682612e8c565b8355505b6001600288020188555050505b505050505050565b7f4e487b7100000000000000000000000000000000000000000000000000000000600052601160045260246000fd5b6000612fd2826123ed565b9150612fdd836123ed565b9250828201905080821115612ff557612ff4612f98565b5b92915050565b613004816123ed565b82525050565b600060608201905061301f6000830186612ffb565b61302c6020830185612ffb565b6130396040830184612ffb565b949350505050565b600061304c826123ed565b9150613057836123ed565b925082820390508181111561306f5761306e612f98565b5b92915050565b7f596f7520616c72656164792068617665206f6e65206f70656e6e696e6720467560008201527f6e64726169736500000000000000000000000000000000000000000000000000602082015250565b60006130d1602783612c3d565b91506130dc82613075565b604082019050919050565b60006020820190508181036000830152613100816130c4565b9050919050565b6000613112826126f0565b61311c8185612c3d565b935061312c81856020860161270c565b6131358161242d565b840191505092915050565b60006060820190506131556000830186612ffb565b81810360208301526131678185613107565b90506131766040830184612ffb565b949350505050565b7f54686520646561646c696e6520686176656e27742070617373656420616e642060008201527f74686520676f616c206861736e2774206265656e207265616368656400000000602082015250565b60006131da603c83612c3d565b91506131e58261317e565b604082019050919050565b60006020820190508181036000830152613209816131cd565b9050919050565b60006040820190506132256000830185612ffb565b6132326020830184612ffb565b9392505050565b7f546865206d6f6e65792068617320616c7265616479206265656e20776974686460008201527f7261776e00000000000000000000000000000000000000000000000000000000602082015250565b6000613295602483612c3d565b91506132a082613239565b604082019050919050565b600060208201905081810360008301526132c481613288565b905091905056fea2646970667358221220fdb72f59929135e74c4ee66d582b76cf0aef2afa3302072bd0df1ca1f2a5d11a64736f6c63430008180033",
  "linkReferences": {},
  "deployedLinkReferences": {}
}