{
  "_format": "hh-sol-artifact-1",
  "contractName": "TrustableFund",
  "sourceName": "contracts/TrustableFund.sol",
  "abi": [
    {
      "anonymous": false,
      "inputs": [
        {
          "indexed": false,
          "internalType": "uint256",
          "name": "fundID",
          "type": "uint256"
        },
        {
          "indexed": false,
          "internalType": "uint256",
          "name": "amount",
          "type": "uint256"
        }
      ],
      "name": "CancelSuccess",
      "type": "event"
    },
    {
      "anonymous": false,
      "inputs": [
        {
          "indexed": false,
          "internalType": "uint256",
          "name": "fundID",
          "type": "uint256"
        },
        {
          "indexed": false,
          "internalType": "string",
          "name": "storyTitle",
          "type": "string"
        },
        {
          "indexed": false,
          "internalType": "uint256",
          "name": "goal",
          "type": "uint256"
        }
      ],
      "name": "CreateFundSuccess",
      "type": "event"
    },
    {
      "anonymous": false,
      "inputs": [
        {
          "indexed": false,
          "internalType": "uint256",
          "name": "fundID",
          "type": "uint256"
        },
        {
          "indexed": false,
          "internalType": "uint256",
          "name": "donateID",
          "type": "uint256"
        },
        {
          "indexed": false,
          "internalType": "uint256",
          "name": "amout",
          "type": "uint256"
        }
      ],
      "name": "DonateSuccess",
      "type": "event"
    },
    {
      "anonymous": false,
      "inputs": [
        {
          "indexed": false,
          "internalType": "uint256",
          "name": "fundID",
          "type": "uint256"
        },
        {
          "indexed": false,
          "internalType": "uint256",
          "name": "donateID",
          "type": "uint256"
        },
        {
          "indexed": false,
          "internalType": "uint256",
          "name": "amount",
          "type": "uint256"
        }
      ],
      "name": "RefundSuccess",
      "type": "event"
    },
    {
      "anonymous": false,
      "inputs": [
        {
          "indexed": false,
          "internalType": "uint256",
          "name": "fundID",
          "type": "uint256"
        },
        {
          "indexed": false,
          "internalType": "uint256",
          "name": "amount",
          "type": "uint256"
        }
      ],
      "name": "WithdrawSuccess",
      "type": "event"
    },
    {
      "inputs": [
        {
          "internalType": "string",
          "name": "_time",
          "type": "string"
        }
      ],
      "name": "cancelFundraise",
      "outputs": [],
      "stateMutability": "payable",
      "type": "function"
    },
    {
      "inputs": [
        {
          "internalType": "uint256",
          "name": "_fundID",
          "type": "uint256"
        },
        {
          "internalType": "string",
          "name": "_time",
          "type": "string"
        }
      ],
      "name": "donation",
      "outputs": [],
      "stateMutability": "payable",
      "type": "function"
    },
    {
      "inputs": [
        {
          "internalType": "uint256",
          "name": "_fundID",
          "type": "uint256"
        }
      ],
      "name": "getDonationByFundraise",
      "outputs": [
        {
          "components": [
            {
              "internalType": "uint256",
              "name": "fundID",
              "type": "uint256"
            },
            {
              "internalType": "string",
              "name": "time",
              "type": "string"
            },
            {
              "internalType": "uint256",
              "name": "transAmount",
              "type": "uint256"
            },
            {
              "internalType": "address",
              "name": "donator",
              "type": "address"
            },
            {
              "internalType": "address",
              "name": "fundraiser",
              "type": "address"
            },
            {
              "internalType": "bool",
              "name": "refund",
              "type": "bool"
            }
          ],
          "internalType": "struct TrustableFund.DonationHistory[]",
          "name": "",
          "type": "tuple[]"
        },
        {
          "internalType": "bool",
          "name": "",
          "type": "bool"
        }
      ],
      "stateMutability": "view",
      "type": "function"
    },
    {
      "inputs": [],
      "name": "getDonationHistoryByUser",
      "outputs": [
        {
          "components": [
            {
              "internalType": "uint256",
              "name": "fundID",
              "type": "uint256"
            },
            {
              "internalType": "string",
              "name": "time",
              "type": "string"
            },
            {
              "internalType": "uint256",
              "name": "transAmount",
              "type": "uint256"
            },
            {
              "internalType": "address",
              "name": "donator",
              "type": "address"
            },
            {
              "internalType": "address",
              "name": "fundraiser",
              "type": "address"
            },
            {
              "internalType": "bool",
              "name": "refund",
              "type": "bool"
            }
          ],
          "internalType": "struct TrustableFund.DonationHistory[]",
          "name": "",
          "type": "tuple[]"
        },
        {
          "internalType": "bool",
          "name": "",
          "type": "bool"
        }
      ],
      "stateMutability": "view",
      "type": "function"
    },
    {
      "inputs": [],
      "name": "getFundList",
      "outputs": [
        {
          "components": [
            {
              "internalType": "address",
              "name": "ownerAddress",
              "type": "address"
            },
            {
              "internalType": "uint256",
              "name": "fundID",
              "type": "uint256"
            },
            {
              "internalType": "uint256",
              "name": "goal",
              "type": "uint256"
            },
            {
              "internalType": "uint256",
              "name": "donation",
              "type": "uint256"
            },
            {
              "internalType": "uint256[]",
              "name": "donationList",
              "type": "uint256[]"
            },
            {
              "internalType": "uint256",
              "name": "deadLine",
              "type": "uint256"
            },
            {
              "internalType": "string",
              "name": "storyTitle",
              "type": "string"
            },
            {
              "internalType": "string",
              "name": "storyText",
              "type": "string"
            },
            {
              "internalType": "string",
              "name": "imageurl",
              "type": "string"
            },
            {
              "internalType": "bool",
              "name": "active",
              "type": "bool"
            }
          ],
          "internalType": "struct TrustableFund.Fundraise[]",
          "name": "",
          "type": "tuple[]"
        },
        {
          "internalType": "bool",
          "name": "",
          "type": "bool"
        }
      ],
      "stateMutability": "view",
      "type": "function"
    },
    {
      "inputs": [
        {
          "internalType": "uint256",
          "name": "_fundID",
          "type": "uint256"
        }
      ],
      "name": "getFundTitle",
      "outputs": [
        {
          "internalType": "string",
          "name": "",
          "type": "string"
        }
      ],
      "stateMutability": "view",
      "type": "function"
    },
    {
      "inputs": [],
      "name": "getFundraiseByUser",
      "outputs": [
        {
          "components": [
            {
              "internalType": "address",
              "name": "ownerAddress",
              "type": "address"
            },
            {
              "internalType": "uint256",
              "name": "fundID",
              "type": "uint256"
            },
            {
              "internalType": "uint256",
              "name": "goal",
              "type": "uint256"
            },
            {
              "internalType": "uint256",
              "name": "donation",
              "type": "uint256"
            },
            {
              "internalType": "uint256[]",
              "name": "donationList",
              "type": "uint256[]"
            },
            {
              "internalType": "uint256",
              "name": "deadLine",
              "type": "uint256"
            },
            {
              "internalType": "string",
              "name": "storyTitle",
              "type": "string"
            },
            {
              "internalType": "string",
              "name": "storyText",
              "type": "string"
            },
            {
              "internalType": "string",
              "name": "imageurl",
              "type": "string"
            },
            {
              "internalType": "bool",
              "name": "active",
              "type": "bool"
            }
          ],
          "internalType": "struct TrustableFund.Fundraise[]",
          "name": "",
          "type": "tuple[]"
        },
        {
          "internalType": "bool",
          "name": "",
          "type": "bool"
        }
      ],
      "stateMutability": "view",
      "type": "function"
    },
    {
      "inputs": [
        {
          "internalType": "uint256",
          "name": "_goal",
          "type": "uint256"
        },
        {
          "internalType": "string",
          "name": "_storyTitle",
          "type": "string"
        },
        {
          "internalType": "string",
          "name": "_storyText",
          "type": "string"
        },
        {
          "internalType": "string",
          "name": "_imageurl",
          "type": "string"
        },
        {
          "internalType": "uint256",
          "name": "_deadline",
          "type": "uint256"
        }
      ],
      "name": "publishFundraise",
      "outputs": [],
      "stateMutability": "nonpayable",
      "type": "function"
    },
    {
      "inputs": [],
      "name": "withdrawFundraise",
      "outputs": [],
      "stateMutability": "payable",
      "type": "function"
    }
  ],
  "bytecode": "0x608060405234801561001057600080fd5b506134e4806100206000396000f3fe6080604052600436106100865760003560e01c806382e4df3e1161005957806382e4df3e1461013c578063a9a6ebfb1461017a578063acb0e7c1146101a3578063bd5b5917146101ad578063c2b3e439146101c957610086565b80633443554c1461008b5780636fc56c42146100a757806371a01643146100e4578063742d563914610110575b600080fd5b6100a560048036038101906100a091906126be565b6101f5565b005b3480156100b357600080fd5b506100ce60048036038101906100c9919061271a565b61054c565b6040516100db91906127c6565b60405180910390f35b3480156100f057600080fd5b506100f9610638565b604051610107929190612b0c565b60405180910390f35b34801561011c57600080fd5b50610125610948565b604051610133929190612c87565b60405180910390f35b34801561014857600080fd5b50610163600480360381019061015e919061271a565b610cce565b604051610171929190612c87565b60405180910390f35b34801561018657600080fd5b506101a1600480360381019061019c9190612cb7565b61102c565b005b6101ab6113c0565b005b6101c760048036038101906101c29190612d86565b611761565b005b3480156101d557600080fd5b506101de611f34565b6040516101ec929190612b0c565b60405180910390f35b600115156000838154811061020d5761020c612dcf565b5b90600052602060002090600a020160090160009054906101000a900460ff1615151461026e576040517f08c379a000000000000000000000000000000000000000000000000000000000815260040161026590612e4a565b60405180910390fd5b6000600180549050905060016040518060c001604052808581526020018481526020013481526020013373ffffffffffffffffffffffffffffffffffffffff168152602001600086815481106102c7576102c6612dcf565b5b90600052602060002090600a020160000160009054906101000a900473ffffffffffffffffffffffffffffffffffffffff1673ffffffffffffffffffffffffffffffffffffffff1681526020016000151581525090806001815401808255809150506001900390600052602060002090600502016000909190919091506000820151816000015560208201518160010190816103639190613076565b506040820151816002015560608201518160030160006101000a81548173ffffffffffffffffffffffffffffffffffffffff021916908373ffffffffffffffffffffffffffffffffffffffff16021790555060808201518160040160006101000a81548173ffffffffffffffffffffffffffffffffffffffff021916908373ffffffffffffffffffffffffffffffffffffffff16021790555060a08201518160040160146101000a81548160ff0219169083151502179055505050346000848154811061043357610432612dcf565b5b90600052602060002090600a020160030160008282546104539190613177565b925050819055506000838154811061046e5761046d612dcf565b5b90600052602060002090600a0201600401819080600181540180825580915050600190039060005260206000200160009091909190915055600260003373ffffffffffffffffffffffffffffffffffffffff1673ffffffffffffffffffffffffffffffffffffffff1681526020019081526020016000208190806001815401808255809150506001900390600052602060002001600090919091909150557f53c7cf71fdcfd75abacda89607ee3e759afa8d572a48eb590b34d3cc9f063df783823460405161053f939291906131ba565b60405180910390a1505050565b60606000805490508210610595576040517f08c379a000000000000000000000000000000000000000000000000000000000815260040161058c9061323d565b60405180910390fd5b6004600083815260200190815260200160002080546105b390612e99565b80601f01602080910402602001604051908101604052809291908181526020018280546105df90612e99565b801561062c5780601f106106015761010080835404028352916020019161062c565b820191906000526020600020905b81548152906001019060200180831161060f57829003601f168201915b50505050509050919050565b6060600080600181805480602002602001604051908101604052809291908181526020016000905b8282101561093a57838290600052602060002090600a0201604051806101400160405290816000820160009054906101000a900473ffffffffffffffffffffffffffffffffffffffff1673ffffffffffffffffffffffffffffffffffffffff1673ffffffffffffffffffffffffffffffffffffffff1681526020016001820154815260200160028201548152602001600382015481526020016004820180548060200260200160405190810160405280929190818152602001828054801561074757602002820191906000526020600020905b815481526020019060010190808311610733575b505050505081526020016005820154815260200160068201805461076a90612e99565b80601f016020809104026020016040519081016040528092919081815260200182805461079690612e99565b80156107e35780601f106107b8576101008083540402835291602001916107e3565b820191906000526020600020905b8154815290600101906020018083116107c657829003601f168201915b505050505081526020016007820180546107fc90612e99565b80601f016020809104026020016040519081016040528092919081815260200182805461082890612e99565b80156108755780601f1061084a57610100808354040283529160200191610875565b820191906000526020600020905b81548152906001019060200180831161085857829003601f168201915b5050505050815260200160088201805461088e90612e99565b80601f01602080910402602001604051908101604052809291908181526020018280546108ba90612e99565b80156109075780601f106108dc57610100808354040283529160200191610907565b820191906000526020600020905b8154815290600101906020018083116108ea57829003601f168201915b505050505081526020016009820160009054906101000a900460ff16151515158152505081526020019060010190610660565b505050509150915091509091565b6060600080600260003373ffffffffffffffffffffffffffffffffffffffff1673ffffffffffffffffffffffffffffffffffffffff16815260200190815260200160002080549050036109f557600067ffffffffffffffff8111156109b0576109af612593565b5b6040519080825280602002602001820160405280156109e957816020015b6109d66123f5565b8152602001906001900390816109ce5790505b50600091509150610cca565b6000600260003373ffffffffffffffffffffffffffffffffffffffff1673ffffffffffffffffffffffffffffffffffffffff16815260200190815260200160002080549050905060008167ffffffffffffffff811115610a5857610a57612593565b5b604051908082528060200260200182016040528015610a9157816020015b610a7e6123f5565b815260200190600190039081610a765790505b50905060005b82811015610cbf576001600260003373ffffffffffffffffffffffffffffffffffffffff1673ffffffffffffffffffffffffffffffffffffffff1681526020019081526020016000208281548110610af257610af1612dcf565b5b906000526020600020015481548110610b0e57610b0d612dcf565b5b90600052602060002090600502016040518060c001604052908160008201548152602001600182018054610b4190612e99565b80601f0160208091040260200160405190810160405280929190818152602001828054610b6d90612e99565b8015610bba5780601f10610b8f57610100808354040283529160200191610bba565b820191906000526020600020905b815481529060010190602001808311610b9d57829003601f168201915b50505050508152602001600282015481526020016003820160009054906101000a900473ffffffffffffffffffffffffffffffffffffffff1673ffffffffffffffffffffffffffffffffffffffff1673ffffffffffffffffffffffffffffffffffffffff1681526020016004820160009054906101000a900473ffffffffffffffffffffffffffffffffffffffff1673ffffffffffffffffffffffffffffffffffffffff1673ffffffffffffffffffffffffffffffffffffffff1681526020016004820160149054906101000a900460ff161515151581525050828281518110610ca757610ca6612dcf565b5b60200260200101819052508080600101915050610a97565b508060019350935050505b9091565b606060008060008481548110610ce757610ce6612dcf565b5b90600052602060002090600a02016004018054905003610d6157600067ffffffffffffffff811115610d1c57610d1b612593565b5b604051908082528060200260200182016040528015610d5557816020015b610d426123f5565b815260200190600190039081610d3a5790505b50600091509150611027565b6000808481548110610d7657610d75612dcf565b5b90600052602060002090600a0201600401805480602002602001604051908101604052809291908181526020018280548015610dd157602002820191906000526020600020905b815481526020019060010190808311610dbd575b505050505090506000815167ffffffffffffffff811115610df557610df4612593565b5b604051908082528060200260200182016040528015610e2e57816020015b610e1b6123f5565b815260200190600190039081610e135790505b50905060005b825181101561101c576001838281518110610e5257610e51612dcf565b5b602002602001015181548110610e6b57610e6a612dcf565b5b90600052602060002090600502016040518060c001604052908160008201548152602001600182018054610e9e90612e99565b80601f0160208091040260200160405190810160405280929190818152602001828054610eca90612e99565b8015610f175780601f10610eec57610100808354040283529160200191610f17565b820191906000526020600020905b815481529060010190602001808311610efa57829003601f168201915b50505050508152602001600282015481526020016003820160009054906101000a900473ffffffffffffffffffffffffffffffffffffffff1673ffffffffffffffffffffffffffffffffffffffff1673ffffffffffffffffffffffffffffffffffffffff1681526020016004820160009054906101000a900473ffffffffffffffffffffffffffffffffffffffff1673ffffffffffffffffffffffffffffffffffffffff1673ffffffffffffffffffffffffffffffffffffffff1681526020016004820160149054906101000a900460ff16151515158152505082828151811061100457611003612dcf565b5b60200260200101819052508080600101915050610e34565b508060019350935050505b915091565b6000600360003373ffffffffffffffffffffffffffffffffffffffff1673ffffffffffffffffffffffffffffffffffffffff16815260200190815260200160002080549050905060008082146110e757600360003373ffffffffffffffffffffffffffffffffffffffff1673ffffffffffffffffffffffffffffffffffffffff1681526020019081526020016000206001836110c8919061325d565b815481106110d9576110d8612dcf565b5b906000526020600020015490505b600082148061112c5750600015156000828154811061110957611108612dcf565b5b90600052602060002090600a020160090160009054906101000a900460ff161515145b61116b576040517f08c379a000000000000000000000000000000000000000000000000000000000815260040161116290613303565b60405180910390fd5b600080805490509050606060006040518061014001604052803373ffffffffffffffffffffffffffffffffffffffff1681526020018481526020018b8152602001600081526020018381526020018781526020018a81526020018981526020018881526020016001151581525090806001815401808255809150506001900390600052602060002090600a020160009091909190915060008201518160000160006101000a81548173ffffffffffffffffffffffffffffffffffffffff021916908373ffffffffffffffffffffffffffffffffffffffff1602179055506020820151816001015560408201518160020155606082015181600301556080820151816004019080519060200190611282929190612459565b5060a0820151816005015560c08201518160060190816112a29190613076565b5060e08201518160070190816112b89190613076565b506101008201518160080190816112cf9190613076565b506101208201518160090160006101000a81548160ff0219169083151502179055505050600360003373ffffffffffffffffffffffffffffffffffffffff1673ffffffffffffffffffffffffffffffffffffffff168152602001908152602001600020829080600181540180825580915050600190039060005260206000200160009091909190915055876004600084815260200190815260200160002090816113799190613076565b507ff73d293370e4f1e7400c4b731446885e081672897f2feaa40776692f88d8092882898b6040516113ad93929190613323565b60405180910390a1505050505050505050565b6000600360003373ffffffffffffffffffffffffffffffffffffffff1673ffffffffffffffffffffffffffffffffffffffff1681526020019081526020016000208054905090506000600360003373ffffffffffffffffffffffffffffffffffffffff1673ffffffffffffffffffffffffffffffffffffffff168152602001908152602001600020600183611455919061325d565b8154811061146657611465612dcf565b5b90600052602060002001549050600115156000828154811061148b5761148a612dcf565b5b90600052602060002090600a020160090160009054906101000a900460ff1615151480156114dd575042600082815481106114c9576114c8612dcf565b5b90600052602060002090600a020160050154105b801561150d575060008082815481106114f9576114f8612dcf565b5b90600052602060002090600a020160030154115b8061156257506000818154811061152757611526612dcf565b5b90600052602060002090600a0201600201546000828154811061154d5761154c612dcf565b5b90600052602060002090600a02016003015410155b6115a1576040517f08c379a0000000000000000000000000000000000000000000000000000000008152600401611598906133d3565b60405180910390fd5b6000600360003373ffffffffffffffffffffffffffffffffffffffff1673ffffffffffffffffffffffffffffffffffffffff1681526020019081526020016000208054905090506000600360003373ffffffffffffffffffffffffffffffffffffffff1673ffffffffffffffffffffffffffffffffffffffff168152602001908152602001600020600183611636919061325d565b8154811061164757611646612dcf565b5b906000526020600020015490503373ffffffffffffffffffffffffffffffffffffffff166108fc6000838154811061168257611681612dcf565b5b90600052602060002090600a0201600301549081150290604051600060405180830381858888f193505050501580156116bf573d6000803e3d6000fd5b5060008082815481106116d5576116d4612dcf565b5b90600052602060002090600a020160090160006101000a81548160ff0219169083151502179055507fc91ccefd1d1e7d8df3c8ab46693d7853bb3276bddcb72155f44bd4e618f97e56816000838154811061173357611732612dcf565b5b90600052602060002090600a0201600301546040516117539291906133f3565b60405180910390a150505050565b6000600360003373ffffffffffffffffffffffffffffffffffffffff1673ffffffffffffffffffffffffffffffffffffffff1681526020019081526020016000208054905090506000600360003373ffffffffffffffffffffffffffffffffffffffff1673ffffffffffffffffffffffffffffffffffffffff1681526020019081526020016000206001836117f6919061325d565b8154811061180757611806612dcf565b5b90600052602060002001549050600115156000828154811061182c5761182b612dcf565b5b90600052602060002090600a020160090160009054906101000a900460ff1615151461188d576040517f08c379a00000000000000000000000000000000000000000000000000000000081526004016118849061348e565b60405180910390fd5b6000600360003373ffffffffffffffffffffffffffffffffffffffff1673ffffffffffffffffffffffffffffffffffffffff1681526020019081526020016000208054905090506000600360003373ffffffffffffffffffffffffffffffffffffffff1673ffffffffffffffffffffffffffffffffffffffff168152602001908152602001600020600183611922919061325d565b8154811061193357611932612dcf565b5b90600052602060002001549050600080828154811061195557611954612dcf565b5b90600052602060002090600a02016004018054806020026020016040519081016040528092919081815260200182805480156119b057602002820191906000526020600020905b81548152602001906001019080831161199c575b50505050509050600060018054905003611a675760008083815481106119d9576119d8612dcf565b5b90600052602060002090600a020160090160006101000a81548160ff0219169083151502179055507f405cc655c441c5a58e7ddd21b888c0ef95970ba6af6ea5d163552c5bb4490bcb8260008481548110611a3757611a36612dcf565b5b90600052602060002090600a020160030154604051611a579291906133f3565b60405180910390a1505050611f2f565b60005b8151811015611e8f5760006001838381518110611a8a57611a89612dcf565b5b602002602001015181548110611aa357611aa2612dcf565b5b90600052602060002090600502016040518060c001604052908160008201548152602001600182018054611ad690612e99565b80601f0160208091040260200160405190810160405280929190818152602001828054611b0290612e99565b8015611b4f5780601f10611b2457610100808354040283529160200191611b4f565b820191906000526020600020905b815481529060010190602001808311611b3257829003601f168201915b50505050508152602001600282015481526020016003820160009054906101000a900473ffffffffffffffffffffffffffffffffffffffff1673ffffffffffffffffffffffffffffffffffffffff1673ffffffffffffffffffffffffffffffffffffffff1681526020016004820160009054906101000a900473ffffffffffffffffffffffffffffffffffffffff1673ffffffffffffffffffffffffffffffffffffffff1673ffffffffffffffffffffffffffffffffffffffff1681526020016004820160149054906101000a900460ff16151515158152505090506000600180549050905060016040518060c00160405280846000015181526020018b815260200184604001518152602001846060015173ffffffffffffffffffffffffffffffffffffffff168152602001846080015173ffffffffffffffffffffffffffffffffffffffff168152602001600115158152509080600181540180825580915050600190039060005260206000209060050201600090919091909150600082015181600001556020820151816001019081611ceb9190613076565b506040820151816002015560608201518160030160006101000a81548173ffffffffffffffffffffffffffffffffffffffff021916908373ffffffffffffffffffffffffffffffffffffffff16021790555060808201518160040160006101000a81548173ffffffffffffffffffffffffffffffffffffffff021916908373ffffffffffffffffffffffffffffffffffffffff16021790555060a08201518160040160146101000a81548160ff021916908315150217905550505060008581548110611dba57611db9612dcf565b5b90600052602060002090600a0201600401819080600181540180825580915050600190039060005260206000200160009091909190915055816060015173ffffffffffffffffffffffffffffffffffffffff166108fc83604001519081150290604051600060405180830381858888f19350505050158015611e40573d6000803e3d6000fd5b507f946cac92be83fcdb549f34b55737a82fb0d6e19cb13af4d59b8ba10b6506431d85828460400151604051611e78939291906131ba565b60405180910390a150508080600101915050611a6a565b506000808381548110611ea557611ea4612dcf565b5b90600052602060002090600a020160090160006101000a81548160ff0219169083151502179055507f405cc655c441c5a58e7ddd21b888c0ef95970ba6af6ea5d163552c5bb4490bcb8260008481548110611f0357611f02612dcf565b5b90600052602060002090600a020160030154604051611f239291906133f3565b60405180910390a15050505b505050565b6060600080600360003373ffffffffffffffffffffffffffffffffffffffff1673ffffffffffffffffffffffffffffffffffffffff1681526020019081526020016000208054905003611fe157600067ffffffffffffffff811115611f9c57611f9b612593565b5b604051908082528060200260200182016040528015611fd557816020015b611fc26124a6565b815260200190600190039081611fba5790505b506000915091506123f1565b6000600360003373ffffffffffffffffffffffffffffffffffffffff1673ffffffffffffffffffffffffffffffffffffffff16815260200190815260200160002080549050905060008167ffffffffffffffff81111561204457612043612593565b5b60405190808252806020026020018201604052801561207d57816020015b61206a6124a6565b8152602001906001900390816120625790505b50905060005b828110156123e6576000600360003373ffffffffffffffffffffffffffffffffffffffff1673ffffffffffffffffffffffffffffffffffffffff16815260200190815260200160002082815481106120de576120dd612dcf565b5b9060005260206000200154815481106120fa576120f9612dcf565b5b90600052602060002090600a0201604051806101400160405290816000820160009054906101000a900473ffffffffffffffffffffffffffffffffffffffff1673ffffffffffffffffffffffffffffffffffffffff1673ffffffffffffffffffffffffffffffffffffffff168152602001600182015481526020016002820154815260200160038201548152602001600482018054806020026020016040519081016040528092919081815260200182805480156121d757602002820191906000526020600020905b8154815260200190600101908083116121c3575b50505050508152602001600582015481526020016006820180546121fa90612e99565b80601f016020809104026020016040519081016040528092919081815260200182805461222690612e99565b80156122735780601f1061224857610100808354040283529160200191612273565b820191906000526020600020905b81548152906001019060200180831161225657829003601f168201915b5050505050815260200160078201805461228c90612e99565b80601f01602080910402602001604051908101604052809291908181526020018280546122b890612e99565b80156123055780601f106122da57610100808354040283529160200191612305565b820191906000526020600020905b8154815290600101906020018083116122e857829003601f168201915b5050505050815260200160088201805461231e90612e99565b80601f016020809104026020016040519081016040528092919081815260200182805461234a90612e99565b80156123975780601f1061236c57610100808354040283529160200191612397565b820191906000526020600020905b81548152906001019060200180831161237a57829003601f168201915b505050505081526020016009820160009054906101000a900460ff1615151515815250508282815181106123ce576123cd612dcf565b5b60200260200101819052508080600101915050612083565b508060019350935050505b9091565b6040518060c00160405280600081526020016060815260200160008152602001600073ffffffffffffffffffffffffffffffffffffffff168152602001600073ffffffffffffffffffffffffffffffffffffffff1681526020016000151581525090565b828054828255906000526020600020908101928215612495579160200282015b82811115612494578251825591602001919060010190612479565b5b5090506124a29190612511565b5090565b604051806101400160405280600073ffffffffffffffffffffffffffffffffffffffff16815260200160008152602001600081526020016000815260200160608152602001600081526020016060815260200160608152602001606081526020016000151581525090565b5b8082111561252a576000816000905550600101612512565b5090565b6000604051905090565b600080fd5b600080fd5b6000819050919050565b61255581612542565b811461256057600080fd5b50565b6000813590506125728161254c565b92915050565b600080fd5b600080fd5b6000601f19601f8301169050919050565b7f4e487b7100000000000000000000000000000000000000000000000000000000600052604160045260246000fd5b6125cb82612582565b810181811067ffffffffffffffff821117156125ea576125e9612593565b5b80604052505050565b60006125fd61252e565b905061260982826125c2565b919050565b600067ffffffffffffffff82111561262957612628612593565b5b61263282612582565b9050602081019050919050565b82818337600083830152505050565b600061266161265c8461260e565b6125f3565b90508281526020810184848401111561267d5761267c61257d565b5b61268884828561263f565b509392505050565b600082601f8301126126a5576126a4612578565b5b81356126b584826020860161264e565b91505092915050565b600080604083850312156126d5576126d4612538565b5b60006126e385828601612563565b925050602083013567ffffffffffffffff8111156127045761270361253d565b5b61271085828601612690565b9150509250929050565b6000602082840312156127305761272f612538565b5b600061273e84828501612563565b91505092915050565b600081519050919050565b600082825260208201905092915050565b60005b83811015612781578082015181840152602081019050612766565b60008484015250505050565b600061279882612747565b6127a28185612752565b93506127b2818560208601612763565b6127bb81612582565b840191505092915050565b600060208201905081810360008301526127e0818461278d565b905092915050565b600081519050919050565b600082825260208201905092915050565b6000819050602082019050919050565b600073ffffffffffffffffffffffffffffffffffffffff82169050919050565b600061283f82612814565b9050919050565b61284f81612834565b82525050565b61285e81612542565b82525050565b600081519050919050565b600082825260208201905092915050565b6000819050602082019050919050565b600061289c8383612855565b60208301905092915050565b6000602082019050919050565b60006128c082612864565b6128ca818561286f565b93506128d583612880565b8060005b838110156129065781516128ed8882612890565b97506128f8836128a8565b9250506001810190506128d9565b5085935050505092915050565b600082825260208201905092915050565b600061292f82612747565b6129398185612913565b9350612949818560208601612763565b61295281612582565b840191505092915050565b60008115159050919050565b6129728161295d565b82525050565b6000610140830160008301516129916000860182612846565b5060208301516129a46020860182612855565b5060408301516129b76040860182612855565b5060608301516129ca6060860182612855565b50608083015184820360808601526129e282826128b5565b91505060a08301516129f760a0860182612855565b5060c083015184820360c0860152612a0f8282612924565b91505060e083015184820360e0860152612a298282612924565b915050610100830151848203610100860152612a458282612924565b915050610120830151612a5c610120860182612969565b508091505092915050565b6000612a738383612978565b905092915050565b6000602082019050919050565b6000612a93826127e8565b612a9d81856127f3565b935083602082028501612aaf85612804565b8060005b85811015612aeb5784840389528151612acc8582612a67565b9450612ad783612a7b565b925060208a01995050600181019050612ab3565b50829750879550505050505092915050565b612b068161295d565b82525050565b60006040820190508181036000830152612b268185612a88565b9050612b356020830184612afd565b9392505050565b600081519050919050565b600082825260208201905092915050565b6000819050602082019050919050565b600060c083016000830151612b806000860182612855565b5060208301518482036020860152612b988282612924565b9150506040830151612bad6040860182612855565b506060830151612bc06060860182612846565b506080830151612bd36080860182612846565b5060a0830151612be660a0860182612969565b508091505092915050565b6000612bfd8383612b68565b905092915050565b6000602082019050919050565b6000612c1d82612b3c565b612c278185612b47565b935083602082028501612c3985612b58565b8060005b85811015612c755784840389528151612c568582612bf1565b9450612c6183612c05565b925060208a01995050600181019050612c3d565b50829750879550505050505092915050565b60006040820190508181036000830152612ca18185612c12565b9050612cb06020830184612afd565b9392505050565b600080600080600060a08688031215612cd357612cd2612538565b5b6000612ce188828901612563565b955050602086013567ffffffffffffffff811115612d0257612d0161253d565b5b612d0e88828901612690565b945050604086013567ffffffffffffffff811115612d2f57612d2e61253d565b5b612d3b88828901612690565b935050606086013567ffffffffffffffff811115612d5c57612d5b61253d565b5b612d6888828901612690565b9250506080612d7988828901612563565b9150509295509295909350565b600060208284031215612d9c57612d9b612538565b5b600082013567ffffffffffffffff811115612dba57612db961253d565b5b612dc684828501612690565b91505092915050565b7f4e487b7100000000000000000000000000000000000000000000000000000000600052603260045260246000fd5b7f66756e647261697365206973206e6f7420616374697665000000000000000000600082015250565b6000612e34601783612752565b9150612e3f82612dfe565b602082019050919050565b60006020820190508181036000830152612e6381612e27565b9050919050565b7f4e487b7100000000000000000000000000000000000000000000000000000000600052602260045260246000fd5b60006002820490506001821680612eb157607f821691505b602082108103612ec457612ec3612e6a565b5b50919050565b60008190508160005260206000209050919050565b60006020601f8301049050919050565b600082821b905092915050565b600060088302612f2c7fffffffffffffffffffffffffffffffffffffffffffffffffffffffffffffffff82612eef565b612f368683612eef565b95508019841693508086168417925050509392505050565b6000819050919050565b6000612f73612f6e612f6984612542565b612f4e565b612542565b9050919050565b6000819050919050565b612f8d83612f58565b612fa1612f9982612f7a565b848454612efc565b825550505050565b600090565b612fb6612fa9565b612fc1818484612f84565b505050565b5b81811015612fe557612fda600082612fae565b600181019050612fc7565b5050565b601f82111561302a57612ffb81612eca565b61300484612edf565b81016020851015613013578190505b61302761301f85612edf565b830182612fc6565b50505b505050565b600082821c905092915050565b600061304d6000198460080261302f565b1980831691505092915050565b6000613066838361303c565b9150826002028217905092915050565b61307f82612747565b67ffffffffffffffff81111561309857613097612593565b5b6130a28254612e99565b6130ad828285612fe9565b600060209050601f8311600181146130e057600084156130ce578287015190505b6130d8858261305a565b865550613140565b601f1984166130ee86612eca565b60005b82811015613116578489015182556001820191506020850194506020810190506130f1565b86831015613133578489015161312f601f89168261303c565b8355505b6001600288020188555050505b505050505050565b7f4e487b7100000000000000000000000000000000000000000000000000000000600052601160045260246000fd5b600061318282612542565b915061318d83612542565b92508282019050808211156131a5576131a4613148565b5b92915050565b6131b481612542565b82525050565b60006060820190506131cf60008301866131ab565b6131dc60208301856131ab565b6131e960408301846131ab565b949350505050565b7f546869732066756e6420494420646f6573206e6f742065786973740000000000600082015250565b6000613227601b83612752565b9150613232826131f1565b602082019050919050565b600060208201905081810360008301526132568161321a565b9050919050565b600061326882612542565b915061327383612542565b925082820390508181111561328b5761328a613148565b5b92915050565b7f596f7520616c72656164792068617665206f6e65206f70656e6e696e6720467560008201527f6e64726169736500000000000000000000000000000000000000000000000000602082015250565b60006132ed602783612752565b91506132f882613291565b604082019050919050565b6000602082019050818103600083015261331c816132e0565b9050919050565b600060608201905061333860008301866131ab565b818103602083015261334a818561278d565b905061335960408301846131ab565b949350505050565b7f54686520646561646c696e6520686176656e27742070617373656420616e642060008201527f74686520676f616c206861736e2774206265656e207265616368656400000000602082015250565b60006133bd603c83612752565b91506133c882613361565b604082019050919050565b600060208201905081810360008301526133ec816133b0565b9050919050565b600060408201905061340860008301856131ab565b61341560208301846131ab565b9392505050565b7f546865206d6f6e65792068617320616c7265616479206265656e20776974686460008201527f7261776e00000000000000000000000000000000000000000000000000000000602082015250565b6000613478602483612752565b91506134838261341c565b604082019050919050565b600060208201905081810360008301526134a78161346b565b905091905056fea2646970667358221220df6f6a98433a9f74c5ebba60271cf3402fad3e466985338ae257cb31b42db6f164736f6c63430008180033",
  "linkReferences": {},
  "deployedLinkReferences": {}
}